S00E00006C6F676765722E7372656396
S31508000000000010248D1C0008911700089717000897
S315080000109D170008A3170008A9170008000000008C
S31508000020000000000000000000000000AF170008F4
S31508000030BD17000800000000CB170008D9170008F4
S31508000040DD1C000879100008DD1C0008DD1C00080E
S31508000050DD1C0008DD1C0008DD1C0008DD1C00088E
S31508000060E5170008DD1C0008DD1C0008DD1C00087B
S31508000070DD1C0008DD1C0008DD1C0008DD1C00086E
S31508000080DD1C0008DD1C0008DD1C0008DD1C00085E
S31508000090F5170008DD1C0008DD1C0008DD1C00083B
S315080000A0091800081D180008DD1C0008DD1C0008DA
S315080000B0DD1C0008DD1C0008DD1C0008DD1C00082E
S315080000C0DD1C0008DD1C0008DD1C0008DD1C00081E
S315080000D0DD1C0008DD1C0008DD1C0008DD1C00080E
S315080000E0DD1C000831180008DD1C0008DD1C0008AE
S315080000F0DD1C0008DD1C0008DD1C0008DD1C0008EE
S31508000100DD1C000845180008DD1C0008DD1C000879
S31508000110DD1C0008DD1C0008DD1C0008DD1C0008CD
S31508000120DD1C0008DD1C0008DD1C0008DD1C0008BD
S31508000130DD1C00080000000000000000DD1C0008AF
S31508000140DD1C0008DD1C0008DD1C0008DD1C00089D
S31508000150DD1C0008DD1C0008DD1C0008DD1C00088D
S31508000160DD1C0008DD1C0008591800086D18000879
S31508000170DD1C000881180008DD1C0008DD1C0008CD
S31508000180DD1C0008DD1C0008DD1C0008DD1C00085D
S31508000190DD1C0008DD1C0008DD1C0008DD1C00084D
S315080001A0DD1C0008DD1C0008DD1C0008DD1C00083D
S315080001B0DD1C0008DD1C0008DD1C0008DD1C00082D
S315080001C0DD1C0008DD1C000800000000000000001F
S315080001D00000000000000000DD1C00080000000010
S315080001E00000000000000000000000000000000001
S315080001F00000000000000000DD1C0008DD1C0008EF
S31508000200DD1C0008DD1C000800000000DD1C0008DD
S31508000210DD1C0008DD1C0008DD1C0008DD1C0008CC
S31508000220DD1C0008DD1C0008DD1C000800000000BD
S31508000230DD1C0008DD1C000800000000DD1C0008AD
S31508000240DD1C0008DD1C0008DD1C0008DD1C00089C
S31508000250DD1C0008DD1C0008DD1C0008DD1C00088C
S31508000260DD1C0008DD1C0008DD1C0008DD1C00087C
S31508000270DD1C0008DD1C00089518000800000000B9
S31508000280DD1C0008DD1C000800000000DD1C00085D
S3150800029000000000DD1C0008DD1C0008DD1C00084D
S311080002A0DD1C0008DD1C0008DD1C000841
S315080002B010B5054C237833B9044B13B10448AFF392
S315080002C000800123237010BD800000240000000078
S315080002D09C9D010808B5034B1BB103490348AFF3BE
S315080002E0008008BD00000000840000249C9D0108D1
S315080002F0034613F8012B002AFBD1181A0138704758
S3150800030001F0FF01102A2BDB10F0070F08D010F8B8
S31508000310013B013A8B422DD010F0070F42B3F6D1BC
S31508000320F0B441EA012141EA014122F007047FF0D5
S3150800033000070023F0E80256083C85EA010586EA2C
S31508000340010685FA47F5A3FA87F586FA47F6A5FA68
S3150800035087F68EB9EED1F0BC01F0FF0102F0070274
S3150800036032B110F8013B013A83EA010313B1F8D11F
S315080003700020704701387047002D06BF3546033800
S31508000380073815F0010F07D1013015F4807F02BF39
S31508000390013015F4C03F0130F0BC0138704700BF8A
S315080003A053B94AB9002908BF00281CBF4FF0FF31CE
S315080003B04FF0FF3000F070B9ADF1080C6DE904CECE
S315080003C000F006F8DDF804E0DDE9022304B0704722
S315080003D02DE9F047089E0D4604460F46002B4AD1E4
S315080003E08A42944665D9B2FA82F343B102FA03FC0B
S315080003F0C3F120029F4020FA02F217439C404FEABD
S315080004001C4E1FFA8CF5B7FBFEF1220C0EFB11777A
S3150800041042EA074201FB05F090420AD91CEB0202A8
S3150800042001F1FF3780F01C81904240F219810239B0
S315080004306244121AA4B2B2FBFEF00EFB102244EA82
S31508000440024400FB05F5A5420AD91CEB040400F199
S31508000450FF3280F00781A54240F2048164440238E5
S3150800046040EA0140641B00211EB1DC400023C6E9B6
S315080004700043BDE8F0878B4208D9002E00F0ED80D6
S315080004800021C6E900050846BDE8F087B3FA83F1FE
S31508000490002949D1AB4202D3824200F2F880841A7D
S315080004A065EB030201201746002EE2D0C6E9004795
S315080004B0DFE702B9FFDEB2FA82F3002B40F0908044
S315080004C08A1A4FEA1C471FFA8CFE0121B2FBF7F580
S315080004D007FB1520220C42EA00420EFB05F090426B
S315080004E008D91CEB020205F1FF3802D2904200F24D
S315080004F0CB804546121AA4B2B2FBF7F007FB1022CE
S3150800050044EA02440EFB00FEA64508D91CEB040487
S3150800051000F1FF3202D2A64500F2BB801046A4EBDA
S315080005200E0440EA05409FE7C1F120078B4022FAF6
S3150800053007FC4CEA030C05FA01F420FA07F3FD4020
S315080005404FEA1C492343B5FBF9F81FFA8CFE09FB51
S3150800055018551C0C44EA054408FB0EF5A54202FA98
S3150800056001F200FA01F00BD91CEB040408F1FF3A7A
S3150800057080F08880A54240F28580A8F1020864448C
S31508000580641B9DB2B4FBF9F309FB134445EA044422
S3150800059003FB0EFEA64508D91CEB040403F1FF3540
S315080005A06CD2A6456AD9023B644443EA0843A3FBD6
S315080005B00295A4EB0E04AC42C846AE4656D353D0B9
S315080005C056B1B0EB080264EB0E0404FA07F7CA400A
S315080005D0CC401743C6E9007418460021BDE8F087E9
S315080005E0C3F1200102FA03FC20FA01F225FA01F10F
S315080005F09D402A434FEA1C471FFA8CFEB1FBF7F0D1
S3150800060007FB1015110C41EA054100FB0EF58D425A
S3150800061004FA03F408D91CEB010100F1FF382FD2C4
S315080006208D422DD902386144491B92B2B1FBF7F5C8
S3150800063007FB151142EA014205FB0EF1914208D962
S315080006401CEB020205F1FF3816D2914214D9023D7D
S315080006506244521A45EA004138E73146304608E70F
S315080006603946E6E61046FBE64845A9D2B9EB020844
S3150800067065EB0C0E013BA3E74546EAE72B4694E7F4
S315080006804046D1E7D0467BE7023D624432E708465A
S315080006900AE76444023842E7704700BF80B500AFF6
S315080006A02E4B2F4A1A602D4B00229A602B4B0022A4
S315080006B0DA602A4B00221A74284B00225A74274BF8
S315080006C000229A74254B40225A61244B01229A61D2
S315080006D0224B0822DA61214B03221A621F4B0122A0
S315080006E05A621E4B01229A621C4B0122DA621B4B8C
S315080006F001221A63194B00225A63184B00229A6387
S31508000700164B0022DA63154B01221A64134B042296
S315080007105A64124B01229A64104B0422DA640F4B76
S3150800072001221A650D4B04225A650C4B01229A6563
S315080007300A4B0122DA65094B01221A66074B002289
S315080007405A66064B04229A66044802F0F3F90346F1
S31508000750002B01D000F0ECFE00BF80BD9C000024F9
S3150800076000A4004080B5BAB000AF786007F1D403A2
S3150800077000221A605A609A60DA601A6107F110035B
S31508000780C0220021184618F01DFF7B681B682B4AFB
S3150800079093424ED14FF400424FF00003C7E90423B9
S315080007A00023C7F8883007F11003184606F076FAD2
S315080007B00346002B01D000F0BBFE214BD3F84C3189
S315080007C01F4A43F48073C2F84C311D4BD3F84C31A1
S315080007D003F48073FB60FB68194BD3F84031184A61
S315080007E043F00203C2F84031154BD3F8403103F009
S315080007F00203BB60BB684FF44053C7F8D4300223EA
S31508000800C7F8D8300023C7F8DC300023C7F8E03033
S315080008100923C7F8E43007F1D4031946094803F059
S3150800082071FA00220021142001F0EBFB142001F0DC
S3150800083002FC00BFE837BD4680BD00BF00A40040EB
S31508000840004402580004025880B58CB000AF07F186
S315080008501C0300221A605A609A60DA601A61434BD8
S31508000860D3F84031414A43F01003C2F840313F4BB8
S31508000870D3F8403103F01003BB61BB693B4BD3F897
S3150800088040313A4A43F00403C2F84031374BD3F8B3
S31508000890403103F004037B617B69344BD3F8403164
S315080008A0324A43F08003C2F84031304BD3F8403126
S315080008B003F080033B613B692C4BD3F840312B4A4C
S315080008C043F00203C2F84031284BD3F8403103F015
S315080008D00203FB60FB68254BD3F84031234A43F0FB
S315080008E00103C2F84031214BD3F8403103F001032C
S315080008F0BB60BB681D4BD3F840311C4A43F0080364
S31508000900C2F84031194BD3F8403103F008037B6035
S315080009107B6800220A21164803F0BCFB0423FB610E
S315080009204FF444133B6200237B6207F11C0319460C
S315080009300F4803F0E7F90A23FB6101233B62002312
S315080009407B620023BB6207F11C031946084803F0C3
S31508000950D9F900220021082001F053FB082001F0F4
S315080009606AFB00BF3037BD4680BD00BF0044025851
S315080009700010025880B400AFBFF34F8F00BF064B7C
S31508000980DB6803F4E0620449044B1343CB60BFF30E
S315080009904F8F00BF00BFFDE700ED00E00400FA0539
S315080009A0F0B5AFB006AF01F09BF9012001F043FBAB
S315080009B000F074F9FFF748FF01F024F800F0F8FD9D
S315080009C0FFF76CFE01F0A2F80FF0D0FE18F0D6F98A
S315080009D000F0E4F900229649964808F071FF0022D3
S315080009E09549944808F088FE914BDB781A46904B57
S315080009F05B7819468E4B9B7800930B468F49904837
S31508000A0018F0C0FD8F480AF00DFF002202218E481B
S31508000A1003F040FB8D4B1B78012B1AD101E018F02F
S31508000A20D3F918F09FF90346022BF8D1002288491A
S31508000A30884816F051FE03461A46874B1A7001225B
S31508000A408649844816F048FE03461A46824B1A70B1
S31508000A502CE07E4B1B78002B12D100227F497D4863
S31508000A6016F03AFE03461A467B4B1A70012278495D
S31508000A70784816F031FE03461A46774B1A7015E089
S31508000A80724B1B78022B11D100227449714816F05B
S31508000A9023FE03461A46704B1A7000226C496D48AD
S31508000AA016F01AFE03461A466B4B1A70132264494F
S31508000AB06B4816F057FE03461A46674B1A70002312
S31508000AC0BB6307F13C0360220021184618F07AFD43
S31508000AD000237B6007F108032E220021184618F030
S31508000AE071FD554B5B6807EE903AB8EE677ADFED15
S31508000AF05D6AC7EE267A9FED5C7A67EE877A9FED88
S31508000B005B7A77EE677AFCEEE77A17EE903AA7F803
S31508000B109E3007F138035649184618F033FD444B02
S31508000B20DB781E46424B5B789C46414B9B781A46BF
S31508000B30414B1B781946404B5B781C463E4B9B78CD
S31508000B401D46B7F89E30381D04930395029401910B
S31508000B50009263463246474918F014FD3B1D184675
S31508000B60FFF7C6FB0246391D07F13803184618F089
S31508000B7031FD3B4BD3E90423394817F0E5FB07F170
S31508000B8038031846FFF7B4FB024607F138013A4B1B
S31508000B90334817F0BAF803461A462F4B1A70374BE4
S31508000BA019221A60354B00225A60344B4FF0005216
S31508000BB09A60324B4FF40022DA60304B00221A61F9
S31508000BC02E4B00225A612D4B00229A612B4B002294
S31508000BD0DA612A4B00221A62294802F089F90022B2
S31508000BE00121274802F094FB2648FFF781FB0346BC
S31508000BF09BB21A46234924480BF090FB18F0E4F8F8
S31508000C00224B1B88002B01D000F066FA204B1B787C
S31508000C10002B03D11F4B1B78002B01D000F012FCD0
S31508000C20C82305221C4918480BF0EAFAE6E700BF74
S31508000C30886305247867052474630524B49D010830
S31508000C4030520524206805240010025874670524CC
S31508000C500869052494310524D04105241069052422
S31508000C60D84105240000804300007A4400007944F6
S31508000C70CC9D0108F09D0108405205243C01002442
S31508000C809C0000248C6305246C68052484310524A3
S31508000C9086310524873105241C9E010880B59CB041
S31508000CA000AF07F124034C220021184618F08AFCED
S31508000CB03B1D20220021184618F084FC354B4FF0C6
S31508000CC0FF32C3F8B020022004F0E0FF00233B60A7
S31508000CD0314B9B69304A43F4404393612E4B9B69E1
S31508000CE003F440433B603B6800BF2B4B9B6903F40E
S31508000CF00053B3F5005FF8D104F014FF254B1B6FC2
S31508000D0023F01803234A43F00803136705237B627D
S31508000D104FF48033BB620123FB620223BB640223C8
S31508000D20FB6401233B6523237B650223BB65802384
S31508000D30FB6502233B660C237B660023BB66002308
S31508000D40FB6607F12403184604F0EAFF0346002B66
S31508000D5001D000F0EDFB3F237B600323BB6000233B
S31508000D60FB6000233B6140237B614023BB614FF45A
S31508000D708063FB6140233B623B1D0621184605F054
S31508000D8001FC0346002B01D000F0D2FB00BF7037F0
S31508000D90BD4680BD004402580048025880B5BAB026
S31508000DA000AF07F1C00328220021184618F00AFCF4
S31508000DB0584B594A1A60574B00225A60554B7F22A6
S31508000DC09A60544BFF22DA60524B00221A61514B4B
S31508000DD000229A614F4B4FF08042DA614D4B002258
S31508000DE05A614C4808F064FB0346002B01D000F01A
S31508000DF09FFB0121474809F000F8034644F22132D7
S31508000E0093422AD0454B1922DA70444B01225A7074
S31508000E10424B0D229A70414B01221A70404B0A220E
S31508000E201A703F4B24225A703D4B00229A703C4B55
S31508000E300022DA603A4B00221A6100223849354806
S31508000E4008F0BCFB00223549324808F0B1FC44F2F0
S31508000E50213201212F4808F0B5FF2E4808F0E6FF99
S31508000E60002387F8C030002387F8C130002387F8AD
S31508000E70C2300023C7F8C4300023C7F8CC3000239B
S31508000E80C7F8D0304FF00043C7F8D4300023C7F86E
S31508000E90D8300023C7F8DC30012387F8E0304FF458
S31508000EA08073C7F8E43007F1C003012219461948D0
S31508000EB008F054FD0346002B01D000F039FB3B46F1
S31508000EC0C0220021184618F07DFB4FF480024FF02F
S31508000ED00003C7E900234FF48073C7F8B4303B46D4
S31508000EE0184605F0DBFE0346002B01D000F020FB78
S31508000EF00C4B1B6F0B4A43F4004313670022002177
S31508000F00292001F07EF8292001F095F800BFE8377E
S31508000F10BD4680BD786705240040005888630524CF
S31508000F20746305240044025880B584B000AF786025
S31508000F3039603B6803F00103002B75D0786802F02E
S31508000F404DFDB860BB68002B2ED0394B1B8819465F
S31508000F50384A0B461B010B449B0013441433FF22EB
S31508000F601A60334B1B881946324A0B461B010B4441
S31508000F709B0013440833FF221A600023FB730FE01B
S31508000F802B4B1B881846FA7B2A4903461B01034448
S31508000F909B000B441344FF221A70FB7B0133FB733F
S31508000FA0FB7B072BECD916E0214B1B881A46134608
S31508000FB01B0113449B0008331E4A1A441C4B1B880A
S31508000FC019460B461B010B449B001A490B4440214A
S31508000FD0786802F02FF8164B1B881A4613461B0131
S31508000FE013449B003033134A13440022194612480F
S31508000FF008F082FB114B1B8801339AB20F4B1A80FB
S315080010000B4B1B8801339AB2094B1A80084B1B8875
S3150800101041F28732934202D9054B00221A800022F8
S315080010200121786802F074F900BF1037BD4680BD0B
S31508001030803105246001002478670524843105245D
S3150800104080B483B000AF7860396000BF0C37BD4606
S315080010505DF8047B7047000080B483B000AF786009
S31508001060044B01221A7000BF0C37BD465DF8047B9D
S31508001070704700BF8731052480B500AF04F0ECFD4A
S3150800108000BF80BD80B400AF00BFBD465DF8047BDD
S315080010907047000080B582B000AF0346FB80FB882E
S315080010A0042B0FD10421094802F0DCFF0346012B6B
S315080010B006D0074B01221A70064801F044FF01E0EA
S315080010C0FFF758FC00BF0837BD4680BD0010025820
S315080010D0863105249C000024F0B58BB006AFA04BE2
S315080010E05B6AA04A1360A04B00221A709F4B00222D
S315080010F01A709F4B00221A709E4B00221A709E4B44
S315080011001B8819469D4A0B461B010B449B0013443A
S3150800111034331B6807EE903AB8EE677ADFED986AC3
S31508001120C7EE267A9FED977A67EE877A9FED967ACD
S3150800113077EE677AFCEEE77A17EE903AFB81934BE7
S31508001140DB781E46914B5B789C46904B9B781846FD
S31508001150894B1B881946894A0B461B010B449B0081
S31508001160134430331B781C46834B1B881946834A25
S315080011700B461B010B449B00134431331B781D4659
S315080011807D4B1B8819467D4A0B461B010B449B0069
S31508001190134432331B781A46FB890493039202954B
S315080011A001940090634632467949704818F0EAF986
S315080011B0714B1B881946714A0B461B010B449B0051
S315080011C0134410331B685A0F6B4B1B8818466B4920
S315080011D003461B0103449B000B4414331B68190C7C
S315080011E0654B1B881C46654823461B0123449B0008
S315080011F0034408331B6800930B4666495C4818F09D
S31508001200C1F95D4B1B8819465C4A0B461B010B440A
S315080012109B0013441B789C46574B1B881946574A14
S315080012200B461B010B449B00134401331B789E4657
S31508001230514B1B881946514A0B461B010B449B0010
S31508001240134402331B7818464B4B1B8819464B4AE6
S315080012500B461B010B449B00134403331B781C46A7
S31508001260454B1B881946454A0B461B010B449B00F8
S31508001270134404331B781D463F4B1B8819463F4AC7
S315080012800B461B010B449B00134405331B781E4673
S31508001290394B1B881946394A0B461B010B449B00E0
S315080012A0134406331B787B60334B1B881946334A35
S315080012B00B461B010B449B00134407331B7805930D
S315080012C07B680493039602950194009073466246E0
S315080012D03149284818F056F9274B1B8801339AB22A
S315080012E0254B1A80244B1B8841F28732934202D938
S315080012F0214B00221A80294B1B88002B05D0274B2F
S315080013001B88013B9AB2254B1A801848FEF7F0FF56
S3150800131003461A461549144818F05CF91448FEF7AE
S31508001320E7FF03461A4612490F4818F053F91148C1
S31508001330FEF7DEFF03461A460E490B4818F04AF92F
S31508001340174B1B78022B2FD10748FEF7D1FF034610
S315080013509AB2C823044913480AF052FF3FE000BF77
S3150800136000000140883105244452052410630524F1
S3150800137048620524AC6205248231052460010024F4
S315080013800000804300007A440000794488630524FD
S31508001390249E0108489E0108589E010884310524A8
S315080013A0746705246C6805241D4B1B78012B03D034
S315080013B01B4B1B78002B12D11A4BD3E9042319486F
S315080013C016F0C2FF1848FEF793FF0246174B164958
S315080013D0144816F09AFC03461A46154B1A70154B14
S315080013E05B6A154A1360154B1A68134B1B689A42B9
S315080013F00AD9114B1A68114B1B68D21A4FF6FF739C
S3150800140013440F4A136006E00B4B1A680B4B1B6814
S31508001410D31A0B4A136000BF1437BD46F0BD00BF90
S3150800142074670524D84105244452052440520524EE
S31508001430D0410524000001408C310524883105245B
S315080014409031052480B582B002AF204816F052FFCD
S315080014501F4B1B78002B05D000221E491E4816F08C
S315080014603BF92BE01D4B1B78002B27D01B4B00228A
S315080014701A7000221A491B4808F022FA184BDB7822
S315080014801A46174B5B781946154B9B7800930B4603
S315080014901549164818F076F8132214490B4816F021
S315080014A061F903461A46124B1A70124B00221A802B
S315080014B0114B00221A80114B00221A8001220821A2
S315080014C00F4802F0E7FD00BFBD4680BDD8410524A0
S315080014D086310524849E0108943105248731052424
S315080014E08863052478670524B49D010830520524CD
S315080014F0D041052484310524823105248031052410
S315080015000010025880B582B000AF78600648FEF732
S31508001510EFFE03469BB21A46034904480AF0FEFE4C
S3150800152000BF0837BD4680BD8C6305246C6805245A
S3150800153080B400AF72B600BFFEE7000080B5B2B057
S3150800154000AF786007F10803C0220021184618F09A
S3150800155039F87B681B68144A934221D14FF48002FC
S315080015604FF00003C7E902234FF48073C7F8BC3075
S3150800157007F10803184605F091FB0346002B01D036
S31508001580FFF7D6FF094B1B6F084A43F4004313675E
S3150800159000220021292000F034FD292000F04BFD0F
S315080015A000BFC837BD4680BD0040005800440258F9
S315080015B080B400AF0B4B0C4A1A600A4B00225A60E3
S315080015C0084B00229A60074B4FF48042DA60054BBD
S315080015D000221A61034B00225A6100BFBD465DF81E
S315080015E0047B7047A06705240070005280B5BCB024
S315080015F000AF786007F1DC0300221A605A609A602F
S31508001600DA601A6107F11803C0220021184617F09C
S31508001610D9FF7B681B68454A934240F083804FF4A4
S3150800162080324FF00003C7E9062304233B623223C6
S315080016307B620223BB620223FB6204233B63802393
S315080016407B630023BB630023FB634FF48033BB66D5
S3150800165007F11803184605F021FB0346002B01D0B5
S31508001660FFF766FF324BD3F83431314A43F48033FF
S31508001670C2F834312E4BD3F8343103F480337B610E
S315080016807B692B4BD3F84031294A43F00403C2F84F
S315080016904031274BD3F8403103F004033B613B69E3
S315080016A0234BD3F84031224A43F00803C2F84031AD
S315080016B01F4BD3F8403103F00803FB60FB684FF477
S315080016C0F853C7F8DC300223C7F8E0300023C7F820
S315080016D0E4300323C7F8E8300C23C7F8EC3007F1E9
S315080016E0DC031946134802F00DFB0423C7F8DC3067
S315080016F00223C7F8E0300023C7F8E4300323C7F80D
S31508001700E8300C23C7F8EC3007F1DC0319460A4821
S3150800171002F0F8FA00220021312000F072FC312094
S3150800172000F089FC00BFF037BD4680BD007000524E
S315080017300044025800080258000C025880B584B0CC
S3150800174000AF07F1080300221A605A600F4BD3F85E
S3150800175054310E4A43F00203C2F854310B4BD3F806
S31508001760543103F002037B607B68C023BB604FF0F3
S315080017700113FB6007F10803184604F0E3F904F0C7
S315080017805BFA00BF1037BD4680BD00BF0044025853
S3150800179080B400AFFEE780B400AFFEE780B400AFC8
S315080017A0FEE780B400AFFEE780B400AFFEE780B482
S315080017B000AF00BFBD465DF8047B704780B400AF3C
S315080017C000BFBD465DF8047B704780B400AF00BF1C
S315080017D0BD465DF8047B704780B500AF00F0F2FAAD
S315080017E000BF80BD80B500AF042002F06CFC00BFCE
S315080017F080BD000080B500AF024801F003FE00BFBF
S3150800180080BD00BF9C00002480B500AF02480AF0E6
S3150800181079F800BF80BD00BF2068052480B500AFF9
S3150800182002480AF06FF800BF80BD00BF2068052493
S3150800183080B500AF024808F0C5F900BF80BD00BFFB
S315080018407867052480B500AF024808F09FFD00BF01
S3150800185080BD00BFA067052480B500AF024802F02E
S31508001860B7FE00BF80BD00BF9471052480B500AFE8
S31508001870024802F0ADFE00BF80BD00BF947105248A
S3150800188080B500AF024802F0A3FE00BF80BD00BFCE
S315080018909471052480B500AF02480AF08BFD00BF9D
S315080018A080BD00BF6C68052480B586B000AF78603F
S315080018B0144A154BD31A7B617B693B61134B1B6832
S315080018C0002B02D1114B124A1A60104B1A687B681A
S315080018D013443A699A4207D217F0A0FE03460C222F
S315080018E01A604FF0FF3309E0084B1B68FB60074B93
S315080018F01A687B681344054A1360FB68184618374C
S31508001900BD4680BD00001024000800001C680524A0
S315080019100000000080B400AF324BD3F88830314A5B
S3150800192043F47003C2F888302F4B1B6803F00F038B
S31508001930022B07D82C4B1B6823F00F032A4A43F0C7
S3150800194003031360294B1B68284A43F001031360FD
S31508001950264B00221A61254B1A682449244B13404A
S315080019600B60214B1B6803F00C03002B07D01E4BA2
S315080019701B6823F00F031C4A43F0030313601B4B39
S3150800198000229A61194B0022DA61184B00221A626A
S31508001990164B184A9A62154B174ADA62134B174ABE
S315080019A01A63124B00225A63104B144A9A630F4B60
S315080019B00022DA630D4B114A1A640C4B00225A6452
S315080019C00A4B1B68094A23F480231360074B00223D
S315080019D01A660B4B43F2D2021A6000BFBD465DF889
S315080019E0047B704700ED00E00020005200440258D6
S315080019F07FEDF6EA000202020000FF018002010103
S31508001A000040005280B588B000AF07F110030022ED
S31508001A101A605A609A60DA603B1D00221A605A60A2
S31508001A209A60204B204A1A601E4B40F6EF225A60F5
S31508001A301C4B00229A601B4B4FF6FF72DA60194B5B
S31508001A4000221A61174B00225A61164B00229A612E
S31508001A50144809F08FFE0346002B01D0FFF768FDF6
S31508001A604FF480533B6107F1100319460D480AF0FD
S31508001A7069F80346002B01D0FFF75AFD00237B6067
S31508001A800023BB600023FB603B1D194605480AF08E
S31508001A90BBFA0346002B01D0FFF74AFD00BF2037EB
S31508001AA0BD4680BD206805240000014080B584B08D
S31508001AB000AF78607B681B68124A93421ED1124BAE
S31508001AC0D3F85031104A43F00103C2F850310E4B97
S31508001AD0D3F8503103F00103FB60FB6800220021B4
S31508001AE0182000F08EFA182000F0A5FA002200212E
S31508001AF0192000F086FA192000F09DFA00BF103769
S31508001B00BD4680BD000001400044025880B500AFC4
S31508001B10224B234A1A60214B224A5A601F4B002245
S31508001B209A601E4B0022DA601C4B00221A611B4B7E
S31508001B300C225A61194B00229A61184B00221A622C
S31508001B40164B00225A62154B00229A62134B00224A
S31508001B505A6612480AF004FB0346002B01D0FFF729
S31508001B60E7FC4FF020410D480CF05BFF0346002BC5
S31508001B7001D0FFF7DDFC002108480CF090FF034672
S31508001B80002B01D0FFF7D4FC04480CF011FF0346E4
S31508001B90002B01D0FFF7CCFC00BF80BD6C68052484
S31508001BA0000C00582433030080B5BAB000AF786043
S31508001BB007F1D40300221A605A609A60DA601A6143
S31508001BC007F11003C0220021184617F0FBFC7B68BA
S31508001BD01B682B4A93424ED14FF004024FF0000384
S31508001BE0C7E904230023C7F8AC3007F110031846E9
S31508001BF005F054F80346002B01D0FFF799FC214B5A
S31508001C00D3F854311F4A43F00803C2F854311D4B28
S31508001C10D3F8543103F00803FB60FB68194BD3F87B
S31508001C204031184A43F00103C2F84031154BD3F846
S31508001C30403103F00103BB60BB684FF4C063C7F8CB
S31508001C40D4300223C7F8D8300023C7F8DC30002385
S31508001C50C7F8E0300323C7F8E43007F1D403194680
S31508001C60094802F04FF8002200218E2000F0C9F939
S31508001C708E2000F0E0F900BFE837BD4680BD00BF02
S31508001C80000C00580044025800000258DFF834D00F
S31508001C90FFF740FE0C480D490D4A002302E0D458D0
S31508001CA0C4500433C4188C42F9D30A4A0A4C002398
S31508001CB001E013600432A242FBD317F0B5FCFEF72D
S31508001CC06FFE7047000010240000002480000024E6
S31508001CD020A4010880000024E0750524FEE7000022
S31508001CE080B582B000AF032000F080F904F000FE52
S31508001CF00246154B9B691B0A03F00F031349CB5C7D
S31508001D0003F01F0322FA03F37B600F4B9B6903F072
S31508001D100F030E4AD35C03F01F037A6822FA03F313
S31508001D200B4A13600B4A7B6813600F2000F014F807
S31508001D300346002B01D0012302E0FFF7FFFC002336
S31508001D4018460837BD4680BD004402582C9F010836
S31508001D50040000240000002480B582B000AF78603B
S31508001D60154B1B78002B01D1012321E0134B1A6870
S31508001D70114B1B7819464FF47A73B3FBF1F3B2FB98
S31508001D80F3F3184600F065F90346002B01D001234A
S31508001D900EE07B680F2B0AD8002279684FF0FF30D7
S31508001DA000F02FF9064A7B681360002300E0012340
S31508001DB018460837BD4680BD0C00002400000024E4
S31508001DC00800002480B400AF064B1B781A46064B61
S31508001DD01B681344044A136000BFBD465DF8047BC4
S31508001DE0704700BF0C0000240069052480B400AFCA
S31508001DF0034B1B681846BD465DF8047B704700BF59
S31508001E000069052480B584B000AF7860FFF7EEFF5F
S31508001E10B8607B68FB60FB68B3F1FF3F05D00A4BEF
S31508001E201B781A46FB681344FB6000BFFFF7DEFF0A
S31508001E300246BB68D31AFA689A42F7D800BF00BFB1
S31508001E401037BD4680BD00BF0C00002480B485B0A5
S31508001E5000AF78607B6803F00703FB600B4BDB6819
S31508001E60BB60BA684FF6FF031340BB60FB681A02F3
S31508001E70BB681A43064B1343BB60044ABB68D3606E
S31508001E8000BF1437BD465DF8047B704700ED00E0DF
S31508001E900000FA0580B400AF044BDB681B0A03F0A8
S31508001EA007031846BD465DF8047B704700ED00E061
S31508001EB080B483B000AF0346FB80B7F90630002B29
S31508001EC00BDBFB8803F01F020749B7F906305B09ED
S31508001ED0012000FA02F241F8232000BF0C37BD4664
S31508001EE05DF8047B704700BF00E100E080B483B072
S31508001EF000AF03463960FB80B7F90630002B0ADBD2
S31508001F003B68DAB20C49B7F906301201D2B20B4473
S31508001F1083F800230AE03B68DAB20849FB8803F035
S31508001F200F03043B1201D2B20B441A7600BF0C37DA
S31508001F30BD465DF8047B704700E100E000ED00E077
S31508001F4080B489B000AFF860B9607A60FB6803F0C6
S31508001F500703FB61FB69C3F10703042B28BF0423AE
S31508001F60BB61FB690433062B02D9FB69033B00E01E
S31508001F7000237B614FF0FF32BB6902FA03F3DA43B1
S31508001F80BB681A407B699A404FF0FF317B6901FABA
S31508001F9003F3D9437B680B40134318462437BD46E1
S31508001FA05DF8047B7047000080B582B000AF7860AA
S31508001FB07B68013BB3F1807F01D301230FE00A4A16
S31508001FC07B68013B53600F214FF0FF30FFF78EFF10
S31508001FD0054B00229A60044B07221A600023184614
S31508001FE00837BD4680BD00BF10E000E080B582B06E
S31508001FF000AF78607868FFF729FF00BF0837BD464D
S3150800200080BD80B586B000AF0346B9607A60FB81B3
S31508002010FFF740FF78617A68B9687869FFF790FF3B
S315080020200246B7F90E3011461846FFF75FFF00BFA4
S315080020301837BD4680BD80B582B000AF0346FB8029
S31508002040B7F906301846FFF733FF00BF0837BD4615
S3150800205080BD80B582B000AF78607868FFF7A4FFCE
S31508002060034618460837BD4680BD000080B586B0D1
S3150800207000AF7860FFF7BAFE38617B68002B01D1A4
S315080020800123DCE27B6893F83530DBB2022B08D0FB
S315080020907B6880225A657B68002283F834200123F6
S315080020A0CDE27B681B68764A93424AD07B681B68F8
S315080020B0744A934245D07B681B68734A934240D062
S315080020C07B681B68714A93423BD07B681B68704AE1
S315080020D0934236D07B681B686E4A934231D07B6840
S315080020E01B686D4A93422CD07B681B686B4A9342E7
S315080020F027D07B681B686A4A934222D07B681B6894
S31508002100684A93421DD07B681B68674A934218D079
S315080021107B681B68654A934213D07B681B68644AD0
S3150800212093420ED07B681B68624A934209D07B684B
S315080021301B68614A934204D07B681B685F4A9342D6
S3150800214001D1012300E00023002B13D07B681B6814
S315080021501A687B681B6822F01E021A607B681B6877
S315080021605A697B681B6822F080025A617B681B6883
S315080021707B610AE07B681B681A687B681B6822F02B
S315080021800E021A607B681B687B617B681B683C4A89
S31508002190934272D07B681B683A4A93426DD07B683B
S315080021A01B68394A934268D07B681B68374A934252
S315080021B063D07B681B68364A93425ED07B681B688F
S315080021C0344A934259D07B681B68334A934254D0A9
S315080021D07B681B68314A93424FD07B681B68304A3C
S315080021E093424AD07B681B682E4A934245D07B6847
S315080021F01B682D4A934240D07B681B682B4A934242
S315080022003BD07B681B682A4A934236D07B681B689A
S31508002210284A934231D07B681B68274A93422CD0C0
S315080022207B681B68254A934227D07B681B68244A2B
S31508002230934222D07B681B68224A93421DD07B6852
S315080022401B68214A934218D07B681B681F4A934231
S3150800225013D07B681B681E4A93420ED07B681B68A6
S315080022601C4A934209D07B681B681B4A934204D0D8
S315080022707B681B68194A934232D1012331E000BFBB
S315080022801000024028000240400002405800024068
S315080022907000024088000240A0000240B8000240D8
S315080022A01004024028040240400402405804024038
S315080022B07004024088040240A0040240B8040240A8
S315080022C0085402581C5402583054025844540258B0
S315080022D0585402586C540258805402589454025860
S315080022E00023002B07D07B681B6E1A687B681B6E61
S315080022F022F480721A607B681B686D4A93424AD042
S315080023007B681B686B4A934245D07B681B686A4AA0
S31508002310934240D07B681B68684A93423BD07B68EF
S315080023201B68674A934236D07B681B68654A9342A6
S3150800233031D07B681B68644A93422CD07B681B6843
S31508002340624A934227D07B681B68614A934222D02F
S315080023507B681B685F4A93421DD07B681B685E4A90
S31508002360934218D07B681B685C4A934213D07B68FB
S315080023701B685B4A93420ED07B681B68594A934296
S3150800238009D07B681B68584A934204D07B681B684F
S31508002390564A934208D17B681B681A687B681B6893
S315080023A022F001021A6007E07B681B681A687B68DE
S315080023B01B6822F001021A6013E0FFF717FD0246B8
S315080023C03B69D31A052B0CD97B6820225A657B6892
S315080023D0032283F835207B68002283F83420012302
S315080023E02DE17B691B6803F00103002BE5D17B68AF
S315080023F01B682F4A93424AD07B681B682D4A934232
S3150800240045D07B681B682C4A934240D07B681B6882
S315080024102A4A93423BD07B681B68294A934236D0A6
S315080024207B681B68274A934231D07B681B68264A1B
S3150800243093422CD07B681B68244A934227D07B683A
S315080024401B68234A934222D07B681B68214A934221
S315080024501DD07B681B68204A934218D07B681B688E
S315080024601E4A934213D07B681B681D4A93420ED0BE
S315080024707B681B681B4A934209D07B681B681A4A0B
S31508002480934204D07B681B68184A934201D1012302
S3150800249000E00023002B2BD07B689B6DBB607B681C
S315080024A0DB6D03F01F033F229A40BB689A602AE05F
S315080024B01000024028000240400002405800024036
S315080024C07000024088000240A0000240B8000240A6
S315080024D01004024028040240400402405804024006
S315080024E07004024088040240A0040240B804024076
S315080024F07B689B6DFB607B68DB6D03F01F03012225
S315080025009A40FB685A607B681B684F4A934272D0B0
S315080025107B681B684D4A93426DD07B681B684C4AA2
S31508002520934268D07B681B684A4A934263D07B68AB
S315080025301B68494A93425ED07B681B68474A9342A8
S3150800254059D07B681B68464A934254D07B681B68FF
S31508002550444A93424FD07B681B68434A93424AD009
S315080025607B681B68414A934245D07B681B68404A92
S31508002570934240D07B681B683E4A93423BD07B68B7
S315080025801B683D4A934236D07B681B683B4A934298
S3150800259031D07B681B683A4A93422CD07B681B680B
S315080025A0384A934227D07B681B68374A934222D021
S315080025B07B681B68354A93421DD07B681B68344A82
S315080025C0934218D07B681B68324A934213D07B68C3
S315080025D01B68314A93420ED07B681B682F4A934288
S315080025E009D07B681B682E4A934204D07B681B6817
S315080025F02C4A934201D1012300E00023002B15D079
S315080026007B685B6E7A68926E5A607B68DB6E002B1D
S315080026100CD07B68DB6E1A687B68DB6E22F48072EE
S315080026201A607B681B6F7A68526F5A607B68012252
S3150800263083F835207B68002283F834200023184667
S315080026401837BD4680BD00BF100002402800024072
S3150800265040000240580002407000024088000240D4
S31508002660A0000240B80002401004024028040240BC
S3150800267040040240580402407004024088040240A4
S31508002680A0040240B8040240085402581C540258D8
S315080026903054025844540258585402586C5402583C
S315080026A0805402589454025880B584B000AF7860BC
S315080026B07B68002B01D1012337E27B6893F835301C
S315080026C0DBB2022B04D07B6880225A6501232CE2F8
S315080026D07B681B685C4A93424AD07B681B685B4AE6
S315080026E0934245D07B681B68594A934240D07B6821
S315080026F01B68584A93423BD07B681B68564A9342EC
S3150800270036D07B681B68554A934231D07B681B6874
S31508002710534A93422CD07B681B68524A934227D06F
S315080027207B681B68504A934222D07B681B684F4AD5
S3150800273093421DD07B681B684D4A934218D07B682C
S315080027401B684C4A934213D07B681B684A4A9342DB
S315080027500ED07B681B68494A934209D07B681B6880
S31508002760474A934204D07B681B68464A934201D184
S31508002770012300E00023002B00F086807B680422FA
S3150800278083F835207B681B682F4A93424AD07B68BA
S315080027901B682E4A934245D07B681B682C4A934295
S315080027A040D07B681B682B4A93423BD07B681B68EA
S315080027B0294A934236D07B681B68284A934231D00F
S315080027C07B681B68264A93422CD07B681B68254A7F
S315080027D0934227D07B681B68234A934222D07B68A2
S315080027E01B68224A93421DD07B681B68204A934285
S315080027F018D07B681B681F4A934213D07B681B68F6
S315080028001D4A93420ED07B681B681C4A934209D026
S315080028107B681B681A4A934204D07B681B68194A6E
S31508002820934208D17B681B681A687B681B6822F08C
S3150800283001021A6078E17B681B681A687B681B6866
S3150800284022F001021A606FE11000024028000240DF
S3150800285040000240580002407000024088000240D2
S31508002860A0000240B80002401004024028040240BA
S3150800287040040240580402407004024088040240A2
S31508002880A0040240B80402407B681B681A687B688B
S315080028901B6822F00E021A607B681B686C4A93421A
S315080028A04AD07B681B686B4A934245D07B681B6895
S315080028B0694A934240D07B681B68684A93423BD07A
S315080028C07B681B68664A934236D07B681B68654AF4
S315080028D0934231D07B681B68634A93422CD07B684D
S315080028E01B68624A934227D07B681B68604A9342FA
S315080028F022D07B681B685F4A93421DD07B681B68A1
S315080029005D4A934218D07B681B685C4A934213D091
S315080029107B681B685A4A93420ED07B681B68594AE3
S31508002920934209D07B681B68574A934204D07B6858
S315080029301B68564A934208D17B681B681A687B68ED
S315080029401B6822F001021A6007E07B681B681A6898
S315080029507B681B6822F001021A607B681B683C4A88
S31508002960934272D07B681B683A4A93426DD07B6863
S315080029701B68394A934268D07B681B68374A93427A
S3150800298063D07B681B68364A93425ED07B681B68B7
S31508002990344A934259D07B681B68334A934254D0D1
S315080029A07B681B68314A93424FD07B681B68304A64
S315080029B093424AD07B681B682E4A934245D07B686F
S315080029C01B682D4A934240D07B681B682B4A93426A
S315080029D03BD07B681B682A4A934236D07B681B68C3
S315080029E0284A934231D07B681B68274A93422CD0E9
S315080029F07B681B68254A934227D07B681B68244A54
S31508002A00934222D07B681B68224A93421DD07B687A
S31508002A101B68214A934218D07B681B681F4A934259
S31508002A2013D07B681B681E4A93420ED07B681B68CE
S31508002A301C4A934209D07B681B681B4A934204D000
S31508002A407B681B68194A934232D1012331E000BFE3
S31508002A501000024028000240400002405800024090
S31508002A607000024088000240A0000240B800024000
S31508002A701004024028040240400402405804024060
S31508002A807004024088040240A0040240B8040240D0
S31508002A90085402581C5402583054025844540258D8
S31508002AA0585402586C540258805402589454025888
S31508002AB00023002B28D07B681B6E1A687B681B6E68
S31508002AC022F480721A607B689B6DFB607B68DB6D05
S31508002AD003F01F0301229A40FB685A607B685B6E0D
S31508002AE07A68926E5A607B68DB6E002B0CD07B6826
S31508002AF0DB6E1A687B68DB6E22F480721A607B686C
S31508002B001B6F7A68526F5A607B68012283F83520FA
S31508002B107B68002283F834207B681B6D002B03D06A
S31508002B207B681B6D78689847002318461037BD46A2
S31508002B3080BD00BF80B598B000AF7860844A07F1C1
S31508002B400C0311464C22184616F094FD7B68002BA0
S31508002B5001D10123C6E17B681B687E4A934206D1F0
S31508002B607B681B6803F580731A467B685A607B6826
S31508002B7093F89830DBB2002B06D17B68002283F8E5
S31508002B8099207868FDF7EEFD7B681B689A697B6873
S31508002B901B6822F010029A61FFF728F9F86514E01D
S31508002BA0FFF724F90246FB6DD31A0A2B0DD97B6869
S31508002BB0D3F89C3043F001027B68C3F89C207B68FD
S31508002BC0032283F8982001238CE17B681B689B69A4
S31508002BD003F00803082BE3D07B681B689A697B68B7
S31508002BE01B6842F001029A61FFF700F9F86514E0E4
S31508002BF0FFF7FCF80246FB6DD31A0A2B0DD97B6842
S31508002C00D3F89C3043F001027B68C3F89C207B68AC
S31508002C10032283F89820012364E17B681B689B697B
S31508002C2003F00103002BE3D07B681B689A697B6875
S31508002C301B6842F002029A617B681B7C012B08D153
S31508002C407B681B689A697B681B6822F040029A6158
S31508002C5007E07B681B689A697B681B6842F040023C
S31508002C609A617B685B7C012B08D17B681B689A6933
S31508002C707B681B6842F480429A6107E07B681B68A0
S31508002C809A697B681B6822F480429A617B689B7C00
S31508002C90012B08D17B681B689A697B681B6822F43C
S31508002CA080529A6107E07B681B689A697B681B6893
S31508002CB042F480529A617B681B689B6923F44071D1
S31508002CC07B689A687B681B680A439A617B681B68FD
S31508002CD09A697B681B6822F0A4029A617B681B6864
S31508002CE01A697B681B6822F010021A617B68DB6828
S31508002CF0012B08D17B681B689A697B681B6842F0C0
S31508002D0004029A6130E07B68DB68002B2CD07B6874
S31508002D10DB68022B20D07B681B689A697B681B6876
S31508002D2042F080029A617B681B681A697B681B6897
S31508002D3042F010021A617B68DB68032B14D17B68AA
S31508002D401B689A697B681B6842F020029A610BE04F
S31508002D50889E010800A000407B681B689A697B680A
S31508002D601B6842F020029A617B689B69013B5A0600
S31508002D707B68DB69013B1B021A437B681B6A013BC4
S31508002D8042EA03017B685B69013B1A047B681B689E
S31508002D900A43DA617B689B68B3F5407F15D17B6887
S31508002DA09B6A5A1E7B68DB6A013B1B021A437B68D7
S31508002DB01B6B013B1B0142EA03017B685B6A013B13
S31508002DC01A047B681B680A43DA607B681B6E002B53
S31508002DD00AD07B681B68D3F8C0107B685A6E7B687C
S31508002DE01B680A43C3F8C0207B68DA6D7B681B6ED4
S31508002DF01344002B11D07B681B68D3F8C83023F026
S31508002E0007017B689B6E9B0060333B4453F8542C48
S31508002E107B681B680A43C3F8C8207B681B6C002BB9
S31508002E2011D07B681B68D3F8BC3023F007017B6898
S31508002E305B6C9B0060333B4453F8542C7B681B68DF
S31508002E400A43C3F8BC207B689B6C002B12D07B68B6
S31508002E501B68D3F8BC3023F070017B68DB6C9B00E1
S31508002E6060333B4453F8543C1A017B681B680A4399
S31508002E70C3F8BC207B681B6D002B12D07B681B68CF
S31508002E80D3F8BC3023F4E0617B685B6D9B0060334C
S31508002E903B4453F8543C1A027B681B680A43C3F840
S31508002EA0BC207B681B68114A934207D17B685B6824
S31508002EB09A687B685B6822F003029A607B68002246
S31508002EC0C3F894207B680022C3F89C207B68012203
S31508002ED083F89820786800F08FFD034687F85B3002
S31508002EE097F85B3018466037BD4680BD00A00040A5
S31508002EF080B483B000AF78607B6893F89830DBB213
S31508002F00012B11D17B68022283F898207B681B6805
S31508002F109A697B681B6822F001029A617B68002225
S31508002F20C3F89C20002308E07B68D3F89C3043F064
S31508002F3004027B68C3F89C20012318460C37BD465B
S31508002F405DF8047B704780B485B000AF78600023D5
S31508002F50FB607B6893F89830DBB2022B5BD17B6809
S31508002F601B689A697B681B6842F001029A6113E044
S31508002F70FB68322B0DD97B68D3F89C3043F00102ED
S31508002F807B68C3F89C207B68032283F8982001237A
S31508002F904AE0FB680133FB607B681B689B6903F0AA
S31508002FA00103002BE4D00023FB607B681B689A6949
S31508002FB07B681B6822F010029A6113E0FB68322BCB
S31508002FC00DD97B68D3F89C3043F001027B68C3F8BF
S31508002FD09C207B68032283F89820012324E0FB6861
S31508002FE00133FB607B681B689B6903F00803082BA9
S31508002FF0E4D07B681B689A697B681B6842F002020A
S315080030009A617B680022C3F894207B68012283F8C2
S315080030109820002308E07B68D3F89C3043F0080228
S315080030207B68C3F89C20012318461437BD465DF813
S31508003030047B704780B48BB000AFF860B9607A60E3
S315080030403B600023FB61FB6893F89830FB76FB7EB8
S31508003050022B40F04B81BB68402B4DD1FB681B68A7
S31508003060D3F8A03003F4FE03002B09D1FB68D3F88C
S315080030709C3043F02002FB68C3F89C2001233EE104
S31508003080FB681B68D3F8A43003F07F03002B09D133
S31508003090FB68D3F89C3043F48072FB68C3F89C2025
S315080030A001232CE1FB681B68D3F8A4301B0E03F040
S315080030B00103012B0BD1FB681B68D3F8A030DB0F8B
S315080030C003F00103B3F1004F01D10123FB61FB6853
S315080030D01B68D3F8A4301B0A03F03F03FA691344AC
S315080030E0FB61FB685A6FFB685B6CF96901FB03F3CC
S315080030F09B0013447B6269E0BB68412B4DD1FB689A
S315080031001B68D3F8B03003F4FE03002B09D1FB6823
S31508003110D3F89C3043F02002FB68C3F89C200123B7
S31508003120EDE0FB681B68D3F8B43003F07F03002B8F
S3150800313009D1FB68D3F89C3043F48072FB68C3F866
S315080031409C200123DBE0FB681B68D3F8B4301B0E18
S3150800315003F00103012B0BD1FB681B68D3F8B030D1
S31508003160DB0F03F00103B3F1004F01D10123FB612B
S31508003170FB681B68D3F8B4301B0A03F03F03FA69EF
S315080031801344FB61FB689A6FFB68DB6CF96901FB0A
S3150800319003F39B0013447B6218E0FB681B6DBA6857
S315080031A09A4209D3FB68D3F89C3043F02002FB68A7
S315080031B0C3F89C200123A2E0FB68DA6FFB685B6D0D
S315080031C0B96801FB03F39B0013447B627B6A1B68A7
S315080031D003F080427B685A607B685B68002B07D1E6
S315080031E07B6A1B689B0CC3F30A027B681A6005E0BE
S315080031F07B6A1B6823F060427B681A607B6A1B68DF
S3150800320003F000527B689A607B6A1B6803F00042F1
S315080032107B681A617B6A04337B627B6A1B689AB295
S315080032207B68DA617B6A1B6803F470227B68DA6064
S315080032307B6A1B6803F480127B685A617B6A1B6889
S3150800324003F400127B689A617B6A1B681B0E03F005
S315080032507F027B681A627B6A1B68DA0F7B685A6290
S315080032607B6A04337B627B6A7B6100233B620AE0EC
S315080032707A693B6A1A4439683B6A0B4412781A70B1
S315080032803B6A01333B627B68DB681B0C1F4AD35CD5
S315080032901A463B6A9342EBD3BB68402B05D1FB68C1
S315080032A01B68FA69C3F8A8201EE0BB68412B05D144
S315080032B0FB681B68FA69C3F8B82015E0BB681F2BC2
S315080032C008D8FB681B680121BA6801FA02F2C3F83C
S315080032D0982009E0BB6803F01F02FB681B68012100
S315080032E001FA02F2C3F89C20002308E0FB68D3F831
S315080032F09C3043F00802FB68C3F89C20012318465B
S315080033002C37BD465DF8047B704700BF3C9F01081B
S3150800331080B487B000AFF860B9607A60FB6893F84C
S315080033209830FB75FB7D012B02D0FB7D022B55D116
S31508003330FB681B689A6DBB681340002B08D1FB68B5
S315080033401B68DA6DFB681B6842F00102DA6514E057
S31508003350FB681B689A6DBB681340BA689A4208D125
S31508003360FB681B68DA6DFB681B6842F00202DA65C7
S3150800337003E0FB681B680322DA65BB6803F4007385
S31508003380002B09D0FB681B68D3F8E010FB681B68A4
S315080033907A680A43C3F8E020BB6803F48063002B0D
S315080033A009D0FB681B68D3F8E410FB681B687A68C9
S315080033B00A43C3F8E420FB681B68596DBA680F4BCB
S315080033C01340FA6812680B4353650D4B5A69BB687C
S315080033D09B0F0B4913434B61002308E0FB68D3F8A6
S315080033E09C3043F00202FB68C3F89C200123184670
S315080033F01C37BD465DF8047B704700BFFFFFCF3F13
S3150800340000A8004080B596B000AF7860954B1B6960
S315080034109B077B65934B5B699B077A6D13407B65BE
S315080034207B681B681B6D03F470433B657B681B68F0
S315080034305B6D3A6D13403B657B681B681B6D03F03B
S315080034400F03FB647B681B685B6DFA6C1340FB64B7
S315080034507B681B681B6D03F0F003BB647B681B6805
S315080034605B6DBA6C1340BB647B681B681B6D03F00D
S3150800347071537B647B681B685B6D7A6C13407B6455
S315080034807B681B681B6D03F060733B647B681B6875
S315080034905B6D3A6C13403B647B681B685B6DFB6332
S315080034A07B681B681B6DBB63FB6B03F48073002B87
S315080034B00FD0BB6B03F48073002B0AD07B681B68A4
S315080034C04FF480721A65674B00221A61786800F01B
S315080034D044FAFB6B03F48063002B1CD0BB6B03F42C
S315080034E08063002B17D07B681B68D3F8DC307B63BE
S315080034F07B681B68D3F8E4307A6B13407B637B6880
S315080035001B684FF480621A65564B00221A61796B64
S31508003510786800F0F9F97B6D002B0DD07B681A6886
S31508003520796D514B0B4013654E4A7B6D9B0F1361AA
S31508003530796D786800F0B2F93B6D002B0DD07B6889
S315080035401A68396D484B0B401365464A3B6D9B0F0D
S315080035501361396D786800F0ACF9FB6C002B0DD05F
S315080035607B681A68F96C404B0B4013653D4AFB6C47
S315080035709B0F1361F96C7868FDF7D6FCBB6C002BC2
S315080035800DD07B681A68B96C374B0B401365354A02
S31508003590BB6C9B0F1361B96C786800F095F9FB6BEF
S315080035A003F40063002B0FD0BB6B03F40063002BFE
S315080035B00AD07B681B684FF400621A65294B002203
S315080035C01A61786800F08BF9FB6B03F40073002B23
S315080035D01CD0BB6B03F40073002B17D07B681B68E9
S315080035E0D3F8D8303B637B681B68D3F8E0303A6B76
S315080035F013403B637B681B684FF400721A65194BCE
S3150800360000221A61396B786800F073F9FB6B03F4D2
S315080036100023002B0FD0BB6B03F40023002B0AD02A
S315080036207B681B684FF400221A650E4B00221A614C
S31508003630786800F074F9FB6B03F48033002B15D01F
S31508003640BB6B03F48033002B10D07B681B684FF4E8
S3150800365080321A65034B00221A61786800F069F90E
S3150800366004E000BF00A80040FFFFCF3FFB6B03F458
S315080036708023002B0FD0BB6B03F48023002B0AD0CA
S315080036807B681B684FF480221A65814B00221A61F9
S31508003690786800F058F9FB6B03F40033002B14D05C
S315080036A0BB6B03F40033002B0FD07B681B684FF409
S315080036B000321A65764B00221A617B68D3F89C3073
S315080036C043F080027B68C3F89C203B6C002B0DD02E
S315080036D07B681A68396C6F4B0B4013656C4A3B6CF8
S315080036E09B0F1361396C7868FDF7AAFC7B6C002B7D
S315080036F011D07B681A68796C664B0B401365644A6F
S315080037007B6C9B0F13617B68D3F89C207B6C1A43F8
S315080037107B68C3F89C207B681B685F4A934240F02D
S31508003720AA807B685B689B6803F00303002B00F0A4
S31508003730A2807B685B681B6A03F00F03FB627B68E9
S315080037405B685B6AFA6A1340FB627B685B681B6AA4
S3150800375003F03003BB627B685B685B6ABA6A134036
S31508003760BB627B685B681B6A03F4C0737B627B6819
S315080037705B685B6A7A6A13407B627B685B681B6A74
S3150800378003F4FC433B627B685B685B6A3A6A1340F6
S315080037903B627B685B681B6A03F4F023FB617B680A
S315080037A05B685B6AFA691340FB617B685B685B6A06
S315080037B0BB617B685B681B6A7B61FB6A002B07D071
S315080037C07B685B68FA6A1A62F96A786800F0D9F861
S315080037D0BB6A002B07D07B685B68BA6A1A62B96A4B
S315080037E0786800F0D9F8BB6903F04003002B19D0BC
S315080037F07B6903F04003002B14D07B685B68DB6BA6
S315080038001B0C9BB23B617B685B68DB6B03F03F0379
S31508003810FB607B685B6840221A62FA6839697868D7
S3150800382000F0C5F87B6A002B07D07B685B687A6A6C
S315080038301A62796A786800F0C6F83B6A002B0BD0E2
S315080038407B685B683A6A1A627B68D3F89C203B6A95
S315080038501A437B68C3F89C20FB69002B0BD07B6856
S315080038605B68FA691A627B68D3F89C20FB691A437D
S315080038707B68C3F89C207B68D3F89C30002B02D069
S31508003880786800F074F800BF5837BD4680BD00BFA1
S3150800389000A80040FFFFCF3F00A0004080B483B0DF
S315080038A000AF7860396000BF0C37BD465DF8047B11
S315080038B0704780B483B000AF7860396000BF0C37BA
S315080038C0BD465DF8047B704780B483B000AF78606E
S315080038D0396000BF0C37BD465DF8047B704780B47D
S315080038E083B000AF786000BF0C37BD465DF8047B37
S315080038F0704780B483B000AF7860396000BF0C377A
S31508003900BD465DF8047B704780B483B000AF78602D
S31508003910396000BF0C37BD465DF8047B704780B43C
S3150800392083B000AF786000BF0C37BD465DF8047BF6
S31508003930704780B483B000AF786000BF0C37BD46CF
S315080039405DF8047B704780B483B000AF786000BF31
S315080039500C37BD465DF8047B704780B483B000AF72
S31508003960786000BF0C37BD465DF8047B704780B4AD
S3150800397083B000AF786000BF0C37BD465DF8047BA6
S31508003980704780B483B000AF7860396000BF0C37E9
S31508003990BD465DF8047B704780B483B000AF78609D
S315080039A0396000BF0C37BD465DF8047B704780B4AC
S315080039B085B000AFF860B9607A6000BF1437BD46BD
S315080039C05DF8047B704780B483B000AF78603960D7
S315080039D000BF0C37BD465DF8047B704780B483B0E2
S315080039E000AF78607B68D3F89C3018460C37BD4624
S315080039F05DF8047B7047000080B485B000AF78603E
S31508003A007B685B6BBB607B681B68D3F88420A74B1D
S31508003A101340BA6891007A6812680B43C2F884307A
S31508003A207B681B68D3F8843023F47F017B689B6B23
S31508003A301A047B681B680A43C3F884207B689B6B5F
S31508003A40BA681344BB607B681B68D3F88820974B19
S31508003A501340BA6891007A6812680B43C2F8883036
S31508003A607B681B68D3F8883023F4FE017B68DB6B20
S31508003A701A047B681B680A43C3F888207B68DB6BDB
S31508003A805B00BA681344BB607B681B68D3F8A02048
S31508003A90864B1340BA6891007A6812680B43C2F8DD
S31508003AA0A0307B681B68D3F8A03023F4FE017B683E
S31508003AB01B6C1A047B681B680A43C3F8A0207B6842
S31508003AC01B6C7A68526C02FB03F3BA681344BB603A
S31508003AD07B681B68D3F8B020744B1340BA68910012
S31508003AE07A6812680B43C2F8B0307B681B68D3F853
S31508003AF0B03023F4FE017B689B6C1A047B681B6854
S31508003B000A43C3F8B0207B689B6C7A68D26C02FBC8
S31508003B1003F3BA681344BB607B681B68D3F8AC2010
S31508003B20624B1340BA6891007A6812680B43C2F870
S31508003B30AC307B681B6D7A68526D02FB03F3BA687A
S31508003B401344BB607B681B68D3F8F020574B1340BF
S31508003B50BA6891007A6812680B43C2F8F0307B683D
S31508003B601B68D3F8F03023F47C117B689B6D1A042C
S31508003B707B681B680A43C3F8F0207B689B6D5B0073
S31508003B80BA681344BB607B681B68D3F8C020474BF0
S31508003B901340BA6891007A6812680B43C2F8C030BD
S31508003BA07B681B68D3F8C03023F47C117B68DB6D17
S31508003BB01A047B681B680A43C3F8C0207B681B6825
S31508003BC0D3F8C03023F07C517B681B6E1A067B68DD
S31508003BD01B680A43C3F8C0207B685A6B344B1344EE
S31508003BE09A007B68DA667B68DA6E7B689B6B9B005B
S31508003BF01A447B681A677B681A6F7B68DB6BDB0085
S31508003C001A447B685A677B685A6F7B681B6C7968AD
S31508003C10496C01FB03F39B001A447B689A677B682F
S31508003C209A6F7B689B6C7968C96C01FB03F39B00F0
S31508003C301A447B68DA677B68DA6F7B681B6D79687C
S31508003C40496D01FB03F39B001A447B68C3F8802087
S31508003C507B68D3F880207B689B6DDB001A447B6801
S31508003C60C3F884207B68D3F884207B68DB6D796889
S31508003C70896E01FB03F39B001A447B68C3F888200E
S31508003C807B68D3F888207B681B6E7968896E01FB90
S31508003C9003F39B001A447B68C3F890207B68D3F82B
S31508003CA09030044A934215D906E000BF0300FFFF8F
S31508003CB0002B0010FCD300407B68D3F89C3043F0FF
S31508003CC020027B68C3F89C207B68032283F898202F
S31508003CD0012310E07B68DB6EFB6005E0FB680022D1
S31508003CE01A60FB680433FB607B68D3F89030FA6887
S31508003CF09A42F3D3002318461437BD465DF8047B71
S31508003D00704700BF80B489B000AF7860396000237F
S31508003D10FB61894B7B6194E13B681A680121FB6969
S31508003D2001FA03F313403B613B69002B00F08681DF
S31508003D303B685B6803F00303012B05D03B685B68AF
S31508003D4003F00303022B30D17B689B68BB61FB69D8
S31508003D505B00032202FA03F3DB43BA691340BB6133
S31508003D603B68DA68FB695B0002FA03F3BA69134336
S31508003D70BB617B68BA699A607B685B68BB61012234
S31508003D80FB6902FA03F3DB43BA691340BB613B687C
S31508003D905B681B0903F00102FB6902FA03F3BA69BF
S31508003DA01343BB617B68BA695A603B685B6803F07A
S31508003DB00303032B17D07B68DB68BB61FB695B00D9
S31508003DC0032202FA03F3DB43BA691340BB613B687B
S31508003DD09A68FB695B0002FA03F3BA691343BB618D
S31508003DE07B68BA69DA603B685B6803F00303022BF9
S31508003DF023D1FB69DA087B68083253F82230BB61A5
S31508003E00FB6903F007039B000F2202FA03F3DB4367
S31508003E10BA691340BB613B681A69FB6903F007037B
S31508003E209B0002FA03F3BA691343BB61FB69DA081C
S31508003E307B680832B96943F822107B681B68BB6146
S31508003E40FB695B00032202FA03F3DB43BA691340FA
S31508003E50BB613B685B6803F00302FB695B0002FA1F
S31508003E6003F3BA691343BB617B68BA691A603B6896
S31508003E705B6803F44033002B00F0E0802F4BD3F847
S31508003E8054312E4A43F00203C2F854312B4BD3F86F
S31508003E90543103F00203FB60FB68294AFB699B085F
S31508003EA0023352F82330BB61FB6903F003039B001E
S31508003EB00F2202FA03F3DB43BA691340BB617B683E
S31508003EC0204A934252D07B681F4A934231D07B687E
S31508003ED01E4A93422BD07B681D4A934225D07B68A5
S31508003EE01C4A93421FD07B681B4A934219D07B68B1
S31508003EF01A4A934213D07B68194A93420DD07B68BD
S31508003F00184A934207D07B68174A934201D109237E
S31508003F102DE00A232BE0082329E0072327E00623C0
S31508003F2025E0052323E0042321E003231FE00223E1
S31508003F301DE001231BE000BF800000580044025822
S31508003F4000040058000002580004025800080258ED
S31508003F50000C0258001002580014025800180258A3
S31508003F60001C025800200258002402580023FA694F
S31508003F7002F0030292009340BA691343BB613849C1
S31508003F80FB699B080233BA6941F823204FF0B04316
S31508003F901B68BB613B69DB43BA691340BB613B687D
S31508003FA05B6803F48013002B03D0BA693B6913439B
S31508003FB0BB614FF0B042BB6913604FF0B0435B681A
S31508003FC0BB613B69DB43BA691340BB613B685B680D
S31508003FD003F40013002B03D0BA693B691343BB6192
S31508003FE04FF0B042BB6953607B695B68BB613B6954
S31508003FF0DB43BA691340BB613B685B6803F4003373
S31508004000002B03D0BA693B691343BB617B69BA6964
S315080040105A607B691B68BB613B69DB43BA6913401D
S31508004020BB613B685B6803F48033002B03D0BA6935
S315080040303B691343BB617B69BA691A60FB69013343
S31508004040FB613B681A68FB6922FA03F3002B7FF4CD
S3150800405063AE00BF00BF2437BD465DF8047B7047DA
S315080040600004005880B485B000AF78600B467B80AA
S315080040707B681A697B881340002B02D00123FB73E7
S3150800408001E00023FB73FB7B18461437BD465DF839
S31508004090047B704780B483B000AF78600B467B80A2
S315080040A013467B707B78002B03D07A887B689A61ED
S315080040B003E07B881A047B689A6100BF0C37BD460B
S315080040C05DF8047B704780B582B000AF0346FB807D
S315080040D04FF0B043D3F88820FB881340002B08D054
S315080040E04FF0B042FB88C2F88830FB881846FCF7C8
S315080040F0D1FF00BF0837BD4680BDF0B58FB00AAF07
S3150800410078607B68002B01D1012354E07B681B682B
S31508004110FB607B6893F8F932DBB2002B06D17B682B
S31508004120002283F8F822786814F086FE7B6803225A
S3150800413083F8F922FB68DB6B03F48073002B02D14A
S315080041407B680022DA607B681B6818460BF07DFBEB
S315080041507B681B683B607E686D4606F110040FCCD1
S315080041600FC50FCC0FC594E8030085E80300331D7F
S315080041700ECB38680BF0EAFA7B681B6801211846F3
S315080041800BF074FB7B681B683B607E686D4606F126
S3150800419010040FCC0FC50FCC0FC594E8030085E8B3
S315080041A00300331D0ECB38680BF01CFD7B6801221B
S315080041B083F8F922002318461437BD46F0BD90B59A
S315080041C089B004AF7860084611461A460346FB7064
S315080041D00B46BB7013467B707B6893F8F832012B4D
S315080041E001D1022376E07B68012283F8F822FB7866
S315080041F07A682C2101FB03F313443D3300221A701D
S31508004200FB787A682C2101FB03F3134438337A7858
S315080042101A70FB787A682C2101FB03F313444033A8
S315080042203A8D1A80FB787A682C2101FB03F3134434
S315080042303933FA781A70FB787A682C2101FB03F374
S3150800424013443F3397F824201A70FB78BA7802F0A3
S315080042507F02D0B27A682C2101FB03F313443A3368
S3150800426002461A7097F90230002B09DAFB787A6849
S315080042702C2101FB03F313443B3301221A7008E097
S31508004280FB787A682C2101FB03F313443B330022A5
S315080042901A70FB787A682C2101FB03F313443C332C
S315080042A097F820201A707B6818687C78BA78F978AD
S315080042B03B8D029397F82430019397F820300093AA
S315080042C023460BF011FE0346FB737B68002283F836
S315080042D0F822FB7B18461437BD4690BD80B584B0DE
S315080042E000AF78600B46FB700023FB737B6893F87E
S315080042F0F832012B01D102230FE07B68012283F8F3
S31508004300F8227B681B68FA78114618460CF063F8A1
S315080043107B68002283F8F822FB7B18461037BD46D7
S3150800432080BD000080B582B000AF786008461146AF
S315080043301A460346FB700B46BB7013467B70FB7828
S315080043407A682C2101FB03F313443B33BA781A70BD
S31508004350FB787A682C2101FB03F313443F337A7800
S315080043601A703B7C002B12D1FB787A682C2101FB52
S3150800437003F31344423303221A70FB787A682C211C
S3150800438001FB03F313443D333A7F1A7008E0FB78C8
S315080043907A682C2101FB03F31344423302221A7074
S315080043A07B78032B00F2C68001A252F823F000BFE7
S315080043B0C14300082145000825440008A344000815
S315080043C03B7C012B40F0B880BB78002B40F0B480D2
S315080043D03B8B002B08D1FB787A682C2101FB03F371
S315080043E01344553301221A70FB787A682C2101FB95
S315080043F003F3134455331B78002B09D1FB787A68ED
S315080044002C2101FB03F31344423300221A7093E074
S31508004410FB787A682C2101FB03F31344423302220A
S315080044201A7089E0BB78002B1DD1FB787A682C219D
S3150800443001FB03F3134455331B78002B09D1FB7892
S315080044407A682C2101FB03F31344423300221A70C5
S3150800445073E0FB787A682C2101FB03F3134442339B
S3150800446002221A7069E0FB787A682C2101FB03F3B3
S31508004470134454331B78002B09D1FB787A682C2116
S3150800448001FB03F31344423300221A7055E0FB780C
S315080044907A682C2101FB03F31344423302221A7073
S315080044A04BE0BB78002B1DD1FB787A682C2101FBE9
S315080044B003F3134455331B78002B09D1FB787A682C
S315080044C02C2101FB03F31344423300221A7034E013
S315080044D0FB787A682C2101FB03F31344423302224A
S315080044E01A702AE0FB787A682C2101FB03F313443F
S315080044F054331B78002B09D1FB787A682C2101FBF1
S3150800450003F31344423300221A7016E0FB787A68E4
S315080045102C2101FB03F31344423302221A700CE0E8
S31508004520FB787A682C2101FB03F3134442330022FB
S315080045301A7002E000BF00E000BFFB787A682C2101
S3150800454001FB03F3134444337A691A60FB783A8B08
S3150800455079682C2000FB03F30B444C331A60FB7874
S315080045607A682C2101FB03F31344603300221A7086
S31508004570FB787A682C2101FB03F31344503300229D
S315080045801A60FB787A682C2101FB03F3134439334C
S31508004590FA781A70FB787A682C2101FB03F3134426
S315080045A0613300221A707B681868FB782C2202FB9C
S315080045B003F338337A68D1187B68DB68DBB21A46AE
S315080045C00BF0B6FD034618460837BD4680BD00BF4A
S315080045D080B586B000AF78607B681B683B613B6935
S315080045E0FB607B681B6818460BF0BAFA0346012B7A
S315080045F040F0FA807B681B6818460BF07DFA034684
S31508004600002B00F0F0807B681B6818460BF074FAE4
S31508004610034603F40013B3F5001F04D17B681B6837
S315080046204FF400125A617B681B6818460BF064FA4F
S31508004630034603F48013B3F5801F04D17B681B6817
S315080046404FF480125A617B681B6818460BF054FABF
S31508004650034603F08063B3F1806F04D17B681B685F
S315080046604FF080625A617B681B6818460BF044FA63
S31508004670034603F00203022B03D17B681B68022260
S315080046805A617B681B6818460BF036FA034603F036
S315080046900053B3F1005F20D17B681B684FF00052CE
S315080046A05A61FB6803F588631B6803F00103002B56
S315080046B013D1102138690BF025F938690BF056F932
S315080046C07B689B69022B05D17B681B68012118460C
S315080046D00BF042FB786814F05DFC7B681B68184693
S315080046E00BF00AFA034603F08073B3F1807F02D118
S315080046F0786801F0A3F97B681B6818460BF0FCF98B
S31508004700034603F00803082B06D1786814F026FC44
S315080047107B681B6808225A617B681B6818460BF081
S31508004720EBF9034603F01003102B01D1012300E037
S315080047300023002B12D07B681B689A697B681B686C
S3150800474022F010029A61786801F0A6F87B681B6867
S315080047509A697B681B6842F010029A617B681B683D
S3150800476018460BF0C9F9034603F00073B3F1007F4E
S315080047703AD17B681B6818460BF01CFEB86000230C
S315080047807B6125E07B6903F00F03BA6822FA03F31D
S3150800479003F00103002B18D07B695A01FB68134408
S315080047A003F5A0631B6803F40043B3F5004F06D175
S315080047B07B69DBB21946786800F0ABF805E07B69DF
S315080047C0DBB21946786800F0B5FC7B6901337B617A
S315080047D07B689B687A699A42D4D37B681B684FF0DA
S315080047E000725A6100E000BF1837BD4680BD80B52B
S315080047F082B000AF78607B6893F8F832012B01D15C
S31508004800022313E07B68012283F8F8227B681B6881
S31508004810012118460BF007FB7B681B6818460BF04E
S3150800482003F87B68002283F8F82200231846083725
S31508004830BD4680BD80B582B000AF78607B6893F8CE
S31508004840F832012B01D102230DE07B68012283F89F
S31508004850F8227B681B6818460BF0F6FE7B68002278
S3150800486083F8F822002318460837BD4680BD80B570
S3150800487082B000AF78607B681B6818460BF0A9FA0F
S31508004880034618460837BD4680BD80B483B000AFDE
S3150800489078600B46FB70FB787A682C2101FB03F3E2
S315080048A0134460331B7818460C37BD465DF8047B05
S315080048B0704780B483B000AF78600B46FB70FB7816
S315080048C07A682C2101FB03F3134450331B681846FE
S315080048D00C37BD465DF8047B704780B582B000AFE3
S315080048E078607B681B6818460BF0EDFA0346184695
S315080048F00837BD4680BD80B582B000AF78607B685A
S315080049001B6818460BF0C8FA034618460837BD4612
S3150800491080BD80B586B000AF78600B46FB707B68BB
S315080049201B687B617B693B617B681B68FA7811466B
S3150800493018460BF0F4F8034603F00403042B19D1C8
S31508004940FB785A013B69134403F5A0631A4604230E
S315080049509360FB787A682C2101FB03F313446133D7
S3150800496007221A707B681B68FA78114618460BF0FE
S3150800497032FD9AE07B681B68FA78114618460BF0F8
S31508004980CEF8034603F48073B3F5807F1AD1FB781B
S315080049905A013B69134403F5A0631A464FF4807322
S315080049A09360FB787A682C2101FB03F31344613387
S315080049B008221A707B681B68FA78114618460BF0AD
S315080049C00AFD72E07B681B68FA78114618460BF0F8
S315080049D0A6F8034603F00803082B19D1FB785A01F9
S315080049E03B69134403F5A0631A4608239360FB78D2
S315080049F07A682C2101FB03F31344613306221A70EB
S31508004A007B681B68FA78114618460BF0E4FC4CE004
S31508004A107B681B68FA78114618460BF080F803463F
S31508004A2003F48063B3F5806F1AD1FB785A013B69AA
S31508004A30134403F5A0631A464FF480639360FB782A
S31508004A407A682C2101FB03F31344613309221A7097
S31508004A507B681B68FA78114618460BF0BCFC24E004
S31508004A607B681B68FA78114618460BF058F8034617
S31508004A7003F08003802B18D1FB785A013B69134455
S31508004A8003F5A0631A4680239360FB787A682C2185
S31508004A9001FB03F31344613307221A707B681B6812
S31508004AA0FA78114618460BF096FC7B681B68FA786C
S31508004AB0114618460BF033F8034603F40073B3F5B2
S31508004AC0007F11D17B681B68FA78114618460BF0EF
S31508004AD082FCFB785A013B69134403F5A0631A4626
S31508004AE04FF40073936022E37B681B68FA781146DB
S31508004AF018460BF014F8034603F00103012B40F0A7
S31508004B00F080FB785A013B69134403F5A0631A4603
S31508004B10202393607B68DB68002B19D0FB787A68C2
S31508004B202C2101FB03F3134448331968FB785A0117
S31508004B303B69134403F5A0631B69C3F31202FB78B0
S31508004B408A1A79682C2000FB03F30B4450331A6049
S31508004B50FB787A682C2101FB03F3134461330122A5
S31508004B601A70FB787A682C2101FB03F313445C3333
S31508004B7000221A60FB785A013B69134403F5A063C7
S31508004B801A4601239360FB787A682C2101FB03F30C
S31508004B9013443F331B78002B09D0FB787A682C2105
S31508004BA001FB03F313443F331B78022B10D17B68B8
S31508004BB01B68FA78114618460BF00DFCFB785A016B
S31508004BC03B69134403F5A0631A461023936039E042
S31508004BD0FB787A682C2101FB03F313443F331B78D7
S31508004BE0032B09D0FB787A682C2101FB03F31344C5
S31508004BF03F331B78012B25D1FB785A013B691344B7
S31508004C0003F5A0631B68FA7851013A690A4402F56C
S31508004C10A06243F000531360FB787A682C2101FBED
S31508004C2003F31344603301221A70FB787A682C2147
S31508004C3001FB03F3134460331A78FB781946786846
S31508004C4014F0B6F97B68DB68012B35D1FB787A68F6
S31508004C502C2101FB03F3134450331B68FA78796857
S31508004C602C2000FB02F20A44403212881344013B0E
S31508004C70FA7879682C2000FB02F20A44403212883E
S31508004C80B3FBF2F303F00103002B00F05082FB782C
S31508004C907A682C2101FB03F3134454331A78FB7802
S31508004CA082F00102D0B27A682C2101FB03F3134487
S31508004CB0543302461A703AE2FB787A682C2101FBD3
S31508004CC003F3134454331A78FB7882F00102D0B206
S31508004CD07A682C2101FB03F31344543302461A70F5
S31508004CE025E27B681B68FA78114618460AF017FF12
S31508004CF0034603F02003202B09D1FB785A013B69B0
S31508004D00134403F5A0631A46202393600FE27B68D9
S31508004D101B68FA78114618460AF001FF034603F0A5
S31508004D200203022B40F06881FB785A013B69134461
S31508004D3003F5A0631A4602239360FB787A682C2150
S31508004D4001FB03F3134461331B78012B12D1FB7863
S31508004D507A682C2101FB03F31344613302221A708B
S31508004D60FB787A682C2101FB03F313446033012294
S31508004D701A7033E1FB787A682C2101FB03F313449C
S31508004D8061331B78062B12D1FB787A682C2101FB3C
S31508004D9003F31344613302221A70FB787A682C21D4
S31508004DA001FB03F31344603305221A7016E1FB78FE
S31508004DB07A682C2101FB03F3134461331B78072B14
S31508004DC009D0FB787A682C2101FB03F3134461337D
S31508004DD01B78092B58D1FB787A682C2101FB03F341
S31508004DE01344613302221A70FB7879682C2203FB7C
S31508004DF002F20A445C321268013279682C2000FB00
S31508004E0003F30B445C331A60FB787A682C2101FBA8
S31508004E1003F313445C331B68022B12D9FB787A68B8
S31508004E202C2101FB03F313445C3300221A60FB7840
S31508004E307A682C2101FB03F31344603304221A70A9
S31508004E40CCE0FB787A682C2101FB03F3134460332A
S31508004E5002221A70FB785A013B69134403F5A063D2
S31508004E601B68FB60FB6823F08043FB60FB6843F02C
S31508004E700043FB60FB785A013B69134403F5A063C2
S31508004E801A46FB681360A9E0FB787A682C2101FBB7
S31508004E9003F3134461331B78052B09D1FB787A6831
S31508004EA02C2101FB03F31344613302221A7095E0A7
S31508004EB0FB787A682C2101FB03F3134461331B78D2
S31508004EC0032B09D1FB787A682C2101FB03F31344E1
S31508004ED0613302221A7081E0FB787A682C2101FB83
S31508004EE003F3134461331B78042B3FD1FB787A68AC
S31508004EF02C2101FB03F31344613302221A70FB7859
S31508004F007A682C2101FB03F31344603302221A70DA
S31508004F10FB787A682C2101FB03F313443F331B7893
S31508004F20002B09D0FB787A682C2101FB03F3134484
S31508004F303F331B78022B51D1FB785A013B69134446
S31508004F4003F5A0631B68FB60FB6823F08043FB60E6
S31508004F50FB6843F00043FB60FB785A013B69134446
S31508004F6003F5A0631A46FB68136037E0FB787A6896
S31508004F702C2101FB03F3134461331B78082B22D140
S31508004F80FB787A682C2101FB03F313446133022270
S31508004F901A70FB7879682C2203FB02F20A445C3209
S31508004FA01268013279682C2000FB03F30B445C334A
S31508004FB01A60FB787A682C2101FB03F313446033EB
S31508004FC004221A700AE0FB787A682C2101FB03F3A5
S31508004FD0134461331B78022B00F0A880FB787A68AB
S31508004FE02C2101FB03F3134460331A78FB78194626
S31508004FF0786813F0DDFF9AE07B681B68FA7811463B
S3150800500018460AF08CFD034603F04003402B22D1D4
S31508005010FB785A013B69134403F5A0631A464023FB
S315080050209360FB787A682C2101FB03F31344613300
S3150800503005221A70FB787A682C2101FB03F31344C6
S315080050405C3300221A607B681B68FA78114618469A
S315080050500BF0C1F96BE07B681B68FA7811461846B5
S315080050600AF05DFD034603F01003102B5FD1FB78B1
S315080050707A682C2101FB03F313443F331B78032B77
S3150800508019D1FB787A682C2101FB03F313445C33AE
S3150800509000221A60FB787A682C2101FB03F313447B
S315080050A0613304221A707B681B68FA781146184621
S315080050B00BF091F930E0FB787A682C2101FB03F3B9
S315080050C013443F331B78002B09D0FB787A682C21D0
S315080050D001FB03F313443F331B78022B1CD1FB78E7
S315080050E07A682C2101FB03F313445C3300221A600F
S315080050F07B68DB68002B0FD1FB787A682C2101FBD3
S3150800510003F31344613304221A707B681B68FA7828
S31508005110114618460BF05FF9FB785A013B691344B0
S3150800512003F5A0631A461023936000E000BF183702
S31508005130BD4680BD80B586B000AF78600B46FB7073
S315080051407B681B687B617B693B617B681B68FA78B7
S31508005150114618460AF0E3FC034603F00403042B41
S3150800516019D1FB785A013B69134403F5A0631A4623
S3150800517004239360FB787A682C2101FB03F313441C
S31508005180613307221A707B681B68FA78114618463D
S315080051900BF021F97DE37B681B68FA7811461846FF
S315080051A00AF0BDFC034603F02003202B36D1FB781A
S315080051B05A013B69134403F5A0631A4620239360FA
S315080051C0FB787A682C2101FB03F313443D331B78E3
S315080051D0012B40F05E83FB787A682C2101FB03F3F0
S315080051E013443D3300221A70FB787A682C2101FBA0
S315080051F003F31344603302221A70FB787A682C2171
S3150800520001FB03F31344613303221A707B681B689E
S31508005210FA78114618460BF0DEF83AE37B681B6805
S31508005220FA78114618460AF07AFC034603F4007326
S31508005230B3F5007F11D1FB785A013B69134403F596
S31508005240A0631A464FF4007393607B681B68FA786C
S31508005250114618460BF0BFF81BE37B681B68FA7803
S31508005260114618460AF05BFC034603F00103012BBE
S3150800527040D1FB787A682C2101FB03F313445C3395
S3150800528000221A607B681B68FA78114618460AF0ED
S3150800529046FC034603F04003402B11D1FB787A689D
S315080052A02C2101FB03F313443D3301221A70FB78CA
S315080052B05A013B69134403F5A0631A4640239360D9
S315080052C0FB785A013B69134403F5A0631A46012388
S315080052D09360FB787A682C2101FB03F3134461334E
S315080052E001221A707B681B68FA78114618460BF07B
S315080052F072F8CEE27B681B68FA78114618460AF0FF
S315080053000EFC034603F04003402B2BD1FB787A684A
S315080053102C2101FB03F31344613305221A70FB7831
S315080053207A682C2101FB03F313443D3301221A70DA
S31508005330FB787A682C2101FB03F313445C330022C3
S315080053401A607B681B68FA78114618460BF043F812
S31508005350FB785A013B69134403F5A0631A464023B8
S31508005360936096E27B681B68FA78114618460AF03D
S31508005370D6FB034603F00803082B19D1FB785A011C
S315080053803B69134403F5A0631A4608239360FB7828
S315080053907A682C2101FB03F31344613306221A7041
S315080053A07B681B68FA78114618460BF014F870E209
S315080053B07B681B68FA78114618460AF0B0FB034664
S315080053C003F01003102B3FD1FB787A682C2101FBE0
S315080053D003F313445C3300221A60FB787A682C21A5
S315080053E001FB03F31344613304221A70FB787A68CD
S315080053F02C2101FB03F313443D331B78002B12D1F8
S31508005400FB787A682C2101FB03F313443C331B78A1
S31508005410002B08D1FB787A682C2101FB03F313448F
S315080054203D3301221A707B681B68FA7811461846C4
S315080054300AF0D1FFFB785A013B69134403F5A063D0
S315080054401A461023936024E27B681B68FA78114693
S3150800545018460AF064FB034603F08003802B61D1EB
S315080054607B68DB68002B10D1FB787A682C2101FB5E
S3150800547003F31344613307221A707B681B68FA78B2
S31508005480114618460AF0A7FF42E0FB7879682C22F5
S3150800549003FB02F20A445C321268013279682C2056
S315080054A000FB03F30B445C331A60FB787A682C2103
S315080054B001FB03F313445C331B68022B1FD9FB78EB
S315080054C07A682C2101FB03F313445C3300221A602B
S315080054D0FB787A682C2101FB03F31344603304221A
S315080054E01A70FB787A682C2101FB03F313446033A6
S315080054F01A78FB781946786813F05AFD08E0FB78A5
S315080055007A682C2101FB03F31344603302221A70D4
