:0200000490006A
:1000000010C00020C5020090232700901523009007
:1000100021270090A3040090A53500900000000067
:1000200000000000000000000000000069290090AE
:10003000A504009000000000252700906B29009087
:10004000DF020090DF020090DF020090DF020090EC
:10005000DF020090DF020090DF020090DF020090DC
:10006000DF020090DF020090DF020090DF020090CC
:10007000DF020090DF020090DF020090DF020090BC
:10008000DF020090DF020090DF020090DF020090AC
:10009000DF020090DF020090DF020090DF0200909C
:1000A000DF020090DF020090DF020090DF0200908C
:1000B000DF020090DF020090DF020090DF0200907C
:1000C000DF020090DF020090DF020090DF0200906C
:1000D000DF020090DF020090DF020090DF0200905C
:1000E000DF020090DF020090DF020090DF0200904C
:1000F000DF020090DF020090DF020090DF0200903C
:10010000DF020090DF020090DF020090DF0200902B
:10011000DF020090DF020090DF020090DF0200901B
:10012000DF020090DF020090DF020090DF0200900B
:10013000DF0200900000000000000000DF020090DD
:10014000DF020090DF020090DF020090DF020090EB
:10015000DF020090DF020090DF020090DF020090DB
:10016000DF020090DF020090DF020090DF020090CB
:10017000DF020090DF020090DF020090DF020090BB
:10018000DF020090DF020090DF020090DF020090AB
:10019000DF020090DF020090DF020090DF0200909B
:1001A000DF020090DF020090DF020090DF0200908B
:1001B000DF020090DF020090DF020090DF0200907B
:1001C000DF020090DF02009000000000000000004D
:1001D0000000000000000000DF02009000000000AE
:1001E000000000000000000000000000000000000F
:1001F0000000000000000000DF020090DF0200901D
:10020000DF020090DF02009000000000DF0200909B
:10021000DF020090DF020090DF020090DF0200901A
:10022000DF020090DF020090DF020090000000007B
:10023000DF020090DF02009000000000DF0200906B
:10024000DF020090DF020090DF020090DF020090EA
:10025000DF020090DF020090DF020090DF020090DA
:10026000DF020090DF020090DF020090DF020090CA
:10027000DF020090DF020090DF020090000000002B
:10028000DF020090DF02009000000000DF0200901B
:1002900000000000DF020090DF020090DF0200900B
:1002A000DF020090DF020090DF020090DFF810D044
:1002B00000F0BAF800480047F1B50190AFF30080B4
:1002C00010C000200648804706480047FEE7FEE7CA
:1002D000FEE7FEE7FEE7FEE7FEE7FEE7FEE7FEE7F6
:1002E000552A0090AD0200902DE9F05F05460020F0
:1002F00092469B4688460646814640241BE0284697
:1003000041464746224600F07EF853465A46C01AF8
:10031000914110D311461846224600F065F82D1A77
:1003200067EB01084F4622460120002100F05CF8EF
:1003300017EB00094E41201EA4F10104DFDC484602
:1003400031462A464346BDE8F09F40EA01039B0739
:1003500003D009E008C9121F08C0042AFAD203E03A
:1003600011F8013B00F8013B521EF9D27047D2B29E
:1003700001E000F8012B491EFBD270470022F6E78E
:1003800010B513460A4604461946FFF7F0FF20460B
:1003900010BD421C10F8011B0029FBD1801A7047C8
:1003A00010B5002200E0521C835C8C5CA34201D19A
:1003B000002BF8D1D8B2E1B2401A10BD30B50446D6
:1003C0000020034600E05B1C934203D2E05CCD5C5E
:1003D000401BF8D030BD034611F8012B00F8012B6B
:1003E000002AF9D118467047202A04DB203A00FA87
:1003F00002F1002070479140C2F1200320FA03F37C
:10040000194390407047202A04DB203A21FA02F079
:100410000021704721FA02F3D040C2F1200291403E
:100420000843194670470000064C074D06E0E06897
:1004300040F0010394E8070098471034AC42F6D32B
:10044000FFF738FF108003903080039070B58C1850
:1004500010F8015B15F0070301D110F8013B2A11D8
:1004600006D110F8012B03E010F8016B01F8016BC5
:100470005B1EF9D12B0705D40023521E0DD401F8C1
:10048000013BFAE710F8013BCB1A921C03E013F88A
:10049000015B01F8015B521EF9D5A142D8D30020BF
:1004A00070BDFEE770472DE9F041012417460D4667
:1004B000064602F03DFC304600F060F8C0B902F09C
:1004C00037FCBB2002F0ACFC012811D16E1E0024C9
:1004D00009E0B44201D1002000E0012002F0F8FB65
:1004E0003855641CE4B2AC42F3D302F045FC00245E
:1004F00002F042FC2046BDE8F081000010B502F099
:10050000D3FC134C00221021204600F082F9012276
:100510002046082100F07DF942F2107002F03CFB09
:1005200000222046082100F074F90A4802F034FB4A
:1005300001222046082100F06CF9074802F02CFB4C
:1005400002F09EFCBDE8104044F6206002F024BB9F
:1005500000100258F04902003057050070B50D46F2
:10056000044602F0E5FB204600F008F810B92846E2
:1005700002F056FC02F000FC002070BD10B50446ED
:1005800002F0D6FBBA2002F04BFC012807D1200A6A
:1005900002F046FC012802D1E0B202F041FC00204A
:1005A00010BD000070B5044600F038F90546601C27
:1005B00002D004480078044400F030F9401BA04207
:1005C000FAD370BD000000202DE9FC4F01257E4CC0
:1005D00000234FF0030A4FF0B04E4FF00F0BEBE04B
:1005E00005FA03F637403A0077D04F68012F05D05F
:1005F000022F03D0112F01D0122F1AD187684FEA92
:100600004308D1F80CC00AFA08F927EA09070CFADE
:1006100008FC4CEA070CC0F808C0476891F804C011
:10062000B743CCF3001C0CFA03FC4CEA070CC0F8EF
:1006300004C0C6684FEA430CD1F80880E1460AFAC4
:100640000CF7BE43019708FA09F848EA0608C0F813
:100650000C804E68022E01D0122E12D1DE084FEA15
:10066000437C00EB860600960F69366A4FEADC6C25
:100670000BFA0CF807FA0CF726EA08063743009E37
:1006800037620E790768DDF804C006F0030606FA43
:1006900009F627EA0C073E4306604E68F6001CD5B3
:1006A0004A4E376847F00207376036689F0706F002
:1006B0000206009623F0030606F1B046B1463F0F4E
:1006C000D6F80864DFF808810BFA07FC404526EAF3
:1006D0000C0603D14FF0000C41E06CE0DFF8F4C0F1
:1006E000604502D14FF0010C39E0DFF8ECC0604505
:1006F00002D14FF0020C32E0DFF8E0C0604502D1D9
:100700004FF0030C2BE0DFF8D8C0604502D14FF06A
:10071000040C24E0DFF8CCC0604502D14FF0050C9A
:100720001DE0DFF8C4C0604502D14FF0060C16E0B2
:10073000DFF8B8C0604502D14FF0070C0FE0DFF8DA
:10074000B0C0604502D14FF0080C08E0DFF8A4C04B
:10075000604502D14FF0090C01E04FF00A0C0CFA91
:1007600007FC4CEA060CC9F808C426684F6826EA5C
:100770000206FF0300D51643266066684F6826EA26
:100780000206BF0300D516436660D1F804C0764662
:10079000DEF800705FEACC2C27EA020700D5174389
:1007A0003760D1F804C077685FEA8C2C27EA02072B
:1007B00000D5174377605B1C0A681746DA407FF460
:1007C0000FAFBDE8FC8F0000800000585445025870
:1007D000000002580004025800080258000C025899
:1007E000001002580014025800180258001C025849
:1007F00000200258002402580069084000D001205F
:100800007047426921EA02030A4043EA02418161DA
:1008100070470AB1816170470904FBE701488068AD
:1008200070470000000000200248816802781144EF
:100830008160704700000020032010B500F004FA2A
:1008400001F040F90F4A104914681368C4F30322F9
:1008500003F00F038A5CC95C02F01F0201F01F0164
:10086000D0400A4A20FA01F11160094908600020CD
:1008700000F010F808B1012010BD00F0B7F9002019
:1008800010BD0000184402583AF8019010000020F2
:100890000C00002070B50D4D04462878A0B14FF42F
:1008A0007A71B1FBF0F00A490968B1FBF0F001F090
:1008B0003BFC48B9102C07D200222146501E00F004
:1008C000A3F900206C6070BD012070BD0000002005
:1008D0000C0000202DE9F041044690F8A0001646D7
:1008E0000F4601281DD0012584F8A050022084F86D
:1008F000A10006EB860000EBC600342204EB80006A
:100900003830FFF722FD32463946204601F096FD89
:10091000216800204D6284F8A15084F8A000BDE851
:10092000F0810220FBE700002DE9F041040004D033
:1009300094F8A100002518B107E00120BDE8F0817E
:10094000204684F8A05000F06BF83448022184F867
:10095000A110012202CC8B6923F070438B6194E8D3
:100960004A001943E3681E4354F8043D31439E692D
:100970003143996121688B6803408B602168A68AA6
:10098000A7698B683B4343EA06438B602168CB68C9
:100990000340CB602168A38B276ACE683E4346EABA
:1009A0000346CE6021680B6903400B612368A68C67
:1009B000A76A1969394341EA0641196121684B69FF
:1009C00003404B612068A38D266B4169314341EAA6
:1009D00003414161236894F8351094F83600DE6ACB
:1009E000000406F07F46DE62236840EA012094F8A6
:1009F0003460D96A31430143D9622068416B41F0C8
:100A0000060141632068816941F001018161C4F8F8
:100A1000A45084F8A120002090E7000000F800F026
:100A2000F0B587B0044614216846FFF7A7FC41499A
:100A3000206888427BD14048016841F0080101608C
:100A4000006800F0080005903B48001F016841F075
:100A500004010160016801F004010591016841F0A1
:100A600001010160016801F001010591016841F097
:100A700002010160016801F002010591016841F085
:100A800010010160016801F010010591016841F059
:100A900008010160016801F008010591016841F059
:100AA0000801016000680E210024029400F0080093
:100AB000059002200125C122CDE90351CDE9002096
:100AC0001E486946FFF780FDEA2000901C486946F1
:100AD000FFF77AFD4FF4784000901A486946FFF717
:100AE00073FD194E4FF47060694600903046FFF771
:100AF0006BFD164F4FF48960694600903846FFF74A
:100B000063FD032000900921304604916946FFF7F8
:100B10005BFDEE03384600223146FFF77AFE009671
:100B20006946CDE9015438460394FFF74DFD07B0FF
:100B3000F0BD000000100050444502580008025863
:100B4000000002580010025800040258000C02581D
:100B5000F0B5154C4378211D0A1D23600378F3B1CD
:100B600043680B60057BC67A817A437B2D07847BC3
:100B700045EA0665C77B90F809C0067A90F800E060
:100B800045EAC14040EA834040EA444040EA074029
:100B900040EA0C2040EA460040EA0E0001E0002056
:100BA00008601060F0BD000098ED00E0BFF35F8FBB
:100BB000044800210368034A23F480330360703241
:100BC0001160704724ED00E0074A40F0010006493B
:100BD00070321060086840F480300860BFF34F8FB7
:100BE000BFF36F8F7047000024ED00E0054808B5A3
:100BF000016841F002010160006800F0020000900D
:100C000008BD0000544502580E4BF0B41B680D4659
:100C1000C3F30223C3F10706042E00D90426191DCD
:100C2000072901D2002300E0DB1E012404FA06F1AB
:100C30009C40491E2940641E994014402143F0BC49
:100C400002F0B1BC0CED00E0064900F0070210B55F
:100C50004FF6FF040868044B204040EA0220184386
:100C6000086010BD0CED00E00000FA05134970B5F6
:100C70000A68D243520705D5096801F0070181428D
:100C800013D118E00A6822F0070202430A60FFF756
:100C9000C5FD0A4D4FF47A760446083D07E000BFD3
:100CA000FFF7BCFD001BB04201D9012070BD2868D0
:100CB000C0438004F4D4002070BD00000C480258EA
:100CC00010B500F0B9FE05490968054AC1F30211E3
:100CD000515C01F01F01C84010BD000020440258C3
:100CE0003AF80190494930B5484C0B1D0A68143454
:100CF00009681D68246802F00303C5F30012C1F3FC
:100D00000531C4F3CC04002914FB02F200EE102AD2
:100D1000F8EE400A75D03F4A9FED3D1AB7EE000A43
:100D20006BB1DFED3D1A012B01D0022B64D002EE36
:100D3000101A1168F8EE422A81EEA22A21E0334C03
:100D4000283C23689B0612D5344B246801EE901A88
:100D50001168C4F3C104F8EE612AE34001EE903A51
:100D6000C1F30801F8EE611A81EEA22A0BE001EE50
:100D7000901ADFED2B2A00BFF8EE611A116882EE9F
:100D8000A12AC1F3080101EE901A1168F8EE611A68
:100D900040EE811A71EE800A62EE200AC1F346210C
:100DA00001EE101AB8EE411A31EE001AC0EE811AA7
:100DB000BCEEE11A80ED001A1168C1F3064101EEA4
:100DC000101AB8EE411A31EE001AC0EE811ABCEECC
:100DD000E11A80ED011A1168C1F3066101EE101AE3
:100DE000B8EE411A31EE000A80EE801ABCEEC10A5C
:100DF00080ED020A30BD04E001EE901ADFED092A11
:100E0000BAE70021016041608160F3E7284402589D
:100E100000000039384402580024744A0090D0037E
:100E20000024744C20BCBE4B494930B5484C0B1DC6
:100E30000A681C3409681D68246802F00303C5F3BE
:100E40000022C1F30551C4F3CC04002914FB02F2C3
:100E500000EE102AF8EE400A75D03F4A9FED3D1A89
:100E6000B7EE000A6BB1DFED3D1A012B01D0022B6A
:100E700064D002EE101A1168F8EE422A81EEA22A1E
:100E800021E0334C283C23689B0612D5344B246860
:100E900001EE901A1168C4F3C104F8EE612AE34030
:100EA00001EE903AC1F30801F8EE611A81EEA22A30
:100EB0000BE001EE901ADFED2B2A00BFF8EE611A6D
:100EC000116882EEA12AC1F3080101EE901A11689F
:100ED000F8EE611A40EE811A71EE800A62EE200A85
:100EE000C1F3462101EE101AB8EE411A31EE001A94
:100EF000C0EE811ABCEEE11A80ED001A1168C1F350
:100F0000064101EE101AB8EE411A31EE001AC0EE99
:100F1000811ABCEEE11A80ED011A1168C1F3066175
:100F200001EE101AB8EE411A31EE000A80EE801A76
:100F3000BCEEC10A80ED020A30BD04E001EE901A59
:100F4000DFED092ABAE70021016041608160F3E723
:100F50002844025800000039404402580024744AD2
:100F60000090D0030024744C20BCBE4B2DE9FC5FE4
:100F7000044650F8241B002500902E460801FE4F21
:100F8000DFF8F8831DD5A06E50B1B0F5801F0CD0EE
:100F9000B0F5001F0ED0B0F5401F1DD001250FE0A9
:100FA000386840F40030386016E00221201D01F05E
:100FB000BBFB03E00098022101F046FC05000BD0CA
:100FC0002E462088C00523D5606D05281ED2DFE897
:100FD00000F00C11161B1B00A26ED8F8001021F4B3
:100FE00040111143C8F80010EBE7386840F40030B6
:100FF000386009E00021201D01F096FB03E0009815
:10100000002101F021FC05467DB100E001252E46BE
:10101000208880052BD5A06DC02826D00EDCA8B175
:10102000402818D080280FD11AE0626DD8F800103F
:1010300021F007011143C8F80010E9E7B0F5807FFF
:1010400013D0B0F5A07F10D001250FE0386840F430
:101050000030386009E00021201D01F065FB03E04D
:101060000098002101F0F0FB054685B12E4620884E
:1010700040052ED5E06DB0F5C06F28D010DCB8B1BA
:10108000B0F5007F19D0B0F5806F0FD11AE0A26DD6
:10109000D8F8001021F4E0711143C8F80010E6E719
:1010A000B0F5006F13D0B0F5206F10D001250FE020
:1010B000386840F40030386009E00021201D01F05C
:1010C00033FB03E00098002101F0BEFB05468DB123
:1010D0002E462068DFF8A4B28001ABF1040B1ED5C8
:1010E000A06CD0B110280ED0202811D0302814D0F8
:1010F000012513E0E26DD8F8001021F4606111437E
:10110000C8F80010E5E7386840F40030386004E0C3
:101110000221201D01F008FB05466DB12E462088F6
:10112000C0042BD5206EB0F5005F20D00DDCA0B13F
:10113000B0F5805F0FD115E0A26CDBF8001021F054
:1011400030011143CBF80010E9E7B0F5405F13D050
:10115000B0F5804F10D001250FE0386840F4003022
:10116000386009E00021201D01F0DEFA03E000985C
:10117000002101F069FB054685B12E4620888004D8
:1011800029D5606EB0F5403F23D010DC08B3B0F530
:10119000803F14D0B0F5003F0FD115E0226ED8F893
:1011A000001021F4E0411143C8F80010E6E7B0F563
:1011B000802F0ED0B0F5A02F0BD001250AE0012121
:1011C000201D01F0B1FA03E00098012101F03CFB81
:1011D00005466DB12E462088DFF8A0A140040AF133
:1011E000080A25D5D4F8AC0030F0704109D01DE0D4
:1011F000626ED8F8001021F4E0211143C8F8001005
:10120000E9E70017072811D2DFE800F00E04090E05
:101210000E0E0E000121201D01F086FA03E0009859
:10122000012101F011FB05467DB100E001252E46AC
:10123000208800041FD5606FD8B1B0F1805F0ED058
:10124000B0F1005F10D0012514E0D4F8AC20DAF83A
:10125000001021F0E0411143CAF80010E8E73868B7
:1012600040F40030386004E00121201D01F05CFAF8
:1012700005466DB12E462068C0011ED5606CD0B108
:1012800001280ED0022811D0032814D0012513E024
:10129000626FD8F8001021F040511143C8F80010D7
:1012A000E9E7386840F40030386004E00221201D8E
:1012B00001F03AFA054665B12E46206840024FD546
:1012C0002F48016841F480710160FFF7A7FA814659
:1012D0000EE0626CDBF8001021F003011143CBF843
:1012E0000010EAE7FFF79AFAA0EB0900642835D866
:1012F00023480068C005F5D58DBBDFF88090B4F8B1
:10130000B01009F12009D9F8000001F4407100F48F
:101310004070884211D0D9F80010D9F8002021F48B
:10132000407142F48032C9F80020D9F8002022F43C
:101330008032C9F80020C9F80010D4F8B000B0F528
:10134000807F2AD1FFF76AFA019022E0FFF766FA60
:101350000199411A41F2883081421AD903252E465B
:101360002078DFF81890C00709F1040945D0D4F8B7
:10137000800018283FD005E02C4402585044025801
:101380000048025826DC80B3082829D0102825D12F
:101390002CE0D9F800008007D8D5D4F8B010C1F3FC
:1013A00001200328FE480DD0016821F47C51016022
:1013B000B4F8B020D9F80010C2F30B021143C9F8F9
:1013C0000010CDE7F74A036802EA111223F47C51BA
:1013D0001143ECE720280ED028280CD001250BE083
:1013E0000121201D01F0A0F904E004E00098012192
:1013F00001F02AFA05465DB12E46207880071FD5F8
:10140000E06F06281AD2DFE800F0170D1217171741
:10141000D4F88020D9F8001021F038011143C9F820
:101420000010EAE70121201D01F07EF903E0009899
:10143000012101F009FA054675B100E001252E46AB
:10144000207840071FD5D4F89800062819D2DFE885
:1014500000F0160C11161616E26FD9F8001021F0E4
:1014600007011143C9F80010EAE70121201D01F02E
:101470005BF903E00098012101F0E6F905469DB112
:1014800000E001252E46207880062BD5D4F8940064
:10149000B0F1405F24D011DC10B3B0F1805F15D003
:1014A000B0F1005F10D116E0D4F89820DAF80010FF
:1014B00021F007011143CAF80010E4E7B0F1804FB2
:1014C0000ED0B0F1A04F0BD001250AE00021201D65
:1014D00001F02AF903E00098022101F0B5F9054670
:1014E0008DB12E46207840062BD5D4F8A000B0F55B
:1014F000406F24D011DC10B3B0F5806F15D0B0F57B
:10150000006F10D116E0D4F89420D9F8001021F023
:10151000E0411143C9F80010E4E7B0F5805F0ED058
:10152000B0F5A05F0BD001250AE00021201D01F0DD
:10153000FBF803E00098022101F086F905468DB121
:101540002E46207800062BD5D4F8A400B0F5C04F65
:1015500024D011DC10B3B0F5005F15D0B0F5804F8A
:1015600010D116E0D4F8A020DAF8001021F4E051F0
:101570001143CAF80010E4E7B0F5004F0ED0B0F503
:10158000204F0BD001250AE00021201D01F0CCF8EE
:1015900003E00098022101F057F905464DB12E46AF
:1015A000207800071ED5D4F88800B0F5805F0AD0F7
:1015B0000FE0D4F8A420DAF8001021F460411143C0
:1015C000CAF80010ECE70098022101F03DF900B1E3
:1015D0000126D4F88820D9F8001021F44051114395
:1015E000C9F800102078C00613D5D4F89C00B0F5D7
:1015F000807F05D10098022101F026F900B1012673
:10160000D4F89C20DAF8001021F440711143CAF894
:1016100000102068000316D5D4F8A80038B1B0F542
:10162000803F09D0B0F5003F0BD001250AE0002132
:10163000201D01F079F803E00098022101F004F97F
:10164000054685B12E462068400322D5D4F88C008B
:10165000B0F5801F11D0B0F5001F13D0B0F5401FBA
:1016600015D0012514E0D4F8A820DAF8001021F4F0
:1016700040311143CAF80010E5E7386840F4003003
:10168000386004E00098012101F0DEF8054655B10C
:101690002E462068C0031CD5E06C70B1B0F5803FC9
:1016A00010D0012514E0D4F88C20D9F8001021F4D2
:1016B00040111143C9F80010EBE7386840F40030DE
:1016C000386004E00221201D01F02EF80546D5B156
:1016D0002E462068800005D50098022101F0B4F85C
:1016E00000B10126206880031CD5D4F88400B8B16D
:1016F000B0F5807F10D0B0F5007F11D0B0F5407FFD
:101700000ED001250DE0E26CDBF8001021F48031F1
:101710001143CBF80010DCE7386840F40030386043
:10172000E5B32E462068C00207D5A26FD8F8001096
:1017300021F000411143C8F800102068800207D54D
:10174000E26ED8F8001021F080711143C8F8001043
:101750002088000507D5226FDAF8001021F000611B
:101760001143CAF800102068400009D50C480168F0
:1017700021F4004101600168D4F8B42011430160F4
:101780002068002807DA226DDBF8001021F04051B4
:101790001143CBF800102068000205E012E00000C1
:1017A00010440258CFFFFF0008D5D4F89020D9F894
:1017B000001021F440011143C9F8001066B1012066
:1017C000BDE8FC9FD4F88420D9F8001021F44071C2
:1017D0001143C9F80010A5E70020F1E72DE9F05FFB
:1017E00004000F467ED0DFF83882D8F8000000F001
:1017F0000F00B8420CD2D8F8001021F00F01394385
:10180000C8F80010D8F8000000F00F00B84269D105
:101810002078844D40070AD52069296801F07001BD
:10182000884204D9296821F0700101432960207899
:101830007C4E361D00070AD56069316801F07001E1
:10184000884204D9316821F0700101433160207869
:10185000C0060AD5A069316801F4E061884204D964
:10186000316821F4E061014331602078DFF8B4B1E0
:1018700080060BF1080B0CD5E1695846DBF8002017
:1018800002F07002914204D9026822F070020A4309
:101890000260207880070AD5E068296801F00F010E
:1018A000884204D9296821F00F010143296020787A
:1018B000C0073ED05B49A2682868183920F47060E0
:1018C000104328606068022818D0032819D00968DE
:1018D000012819D0490700294ADADFF848A1AAF1FE
:1018E000080A00E044E0DAF8002022F00702024390
:1018F000CAF80020FEF792FF814612E009688903CA
:10190000E9E709688901E6E7C905E4E7FEF786FF2C
:10191000A0EB090141F28830814202D90320BDE8E1
:10192000F09F6168DAF8000000F03800B0EBC10FFA
:10193000ECD1207880070AD5E068296801F00F0112
:10194000884204D2296821F00F0101432960D8F8A8
:101950000010404601F00F01B9420BD9016821F097
:101960000F0139430160006800F00F00B84201D058
:101970000120D4E7207840070AD52069296801F0C2
:101980007001884204D2296821F070010143296066
:10199000207800070AD56069316801F0700188423B
:1019A00004D2316821F07001014331602078C00613
:1019B0000AD5A069316801F4E061884204D2316837
:1019C00021F4E06101433160207880060CD5E169A3
:1019D0005846DBF8002002F07002914204D20268FF
:1019E00022F070020A43026000F06CF80E492A6887
:1019F0002B68C2F3032203F00F038A5CC95C02F078
:101A00001F0201F01F01D040084A20FA01F11160C5
:101A10000749086007480068BDE8F05FFEF73ABF75
:101A200000200052184402583AF80190100000209B
:101A30000C0000200400002030B500F043F80B4AF1
:101A40000B490C4B15681468C5F3032204F00F040E
:101A50008A5C095D02F01F0201F01F01D040064AB6
:101A600020FA01F119601060084630BD1844025890
:101A70003AF80190100000200C00002000B5FFF79C
:101A8000DBFF05490968054AC1F30211515C01F009
:101A90001F01C84000BD00001C4402583AF80190E4
:101AA00000B5FFF7C9FF05490968054AC1F30221DE
:101AB000515C01F01F01C84000BD00001C440258E9
:101AC0003AF80190454970B545480968434B103BC9
:101AD00011F0380208D00111082A03D0102A0BD0C7
:101AE000182A0BD0084670BD19688906FBD51968FD
:101AF000C1F3C101C84070BD3A4870BD3749374D88
:101B000018310C1D24350A68096826682D6802F012
:101B1000030406F00102C1F30511C5F3CC0515FB62
:101B200002F200EE102AB8EE400AE9B32F4ADFEDC8
:101B30002E0AB7EE001A6CB1DFED2D1A012C01D080
:101B4000022C43D002EE101A1068F8EE422A81EE01
:101B5000A22A1EE01C68A40611D51B6801EE901A8B
:101B60001168C3F3C103F8EE612AD84001EE900A70
:101B7000C1F30800F8EE611A81EEA22A0BE001EE33
:101B8000901ADFED1C2A00BFF8EE611A106882EE91
:101B9000A12AC0F3080001EE900AF8EE611A40EEA7
:101BA000201A31EE810A00E015E022EE000A1068EA
:101BB000C0F34620401C00EE900AF8EE600A80EE6A
:101BC000201ABCEEC10A10EE100A70BD01EE901A88
:101BD000DFED092AD8E7002070BD0000104402584C
:101BE0000090D00340787D01000000393044025855
:101BF0000024744A0024744C20BCBE4B2DE9F047ED
:101C000004007DD0FF4F2078FE4D1837DFF8F483B5
:101C1000103DC00766D0D8F80000396800F03800E1
:101C2000102822D0182803D101F0030002281CD06C
:101C30006068B0F5803F1FD010B3B0F5A02F2BD057
:101C4000B0F5A81F28682FD020F4803028602868BD
:101C500020F480202860286820F4801028606068C4
:101C600098B3FEF7DBFD06462BE02868800339D5E4
:101C700060680028C5D035E0286840F48030EDE782
:101C8000286820F480302860286820F480102860BC
:101C9000286820F48020E1E7286840F4802028604C
:101CA000286820F4801005E040F48020286028682F
:101CB00040F480102860DFE7FEF7B0FD801B642849
:101CC00077D828688003F7D50CE0FFE7FEF7A6FD7C
:101CD000064604E0FEF7A2FD801B6428F0D82868C1
:101CE0008003F7D42078800744D5D8F80000DFF8C7
:101CF0001493396810F03800A9F10C0910D000E0F5
:101D0000CEE0182801D188070AD0E06808B3296816
:101D100021F0190101432960FEF780FD064614E019
:101D20002868400702D5E0680028A3D0217CD9F8B4
:101D3000002022F0FE4242EA0161C9F8001019E0D9
:101D4000FEF76CFD801B0228BAD828684007F7D53B
:101D5000ECE7286820F001002860FEF75FFD0646EA
:101D600005E000BFFEF75AFD801B0228A8D82868AE
:101D70004007F7D42078C00646D5D8F80000DFF831
:101D80008492396800F03800A9F10409082811D0BC
:101D9000182803D101F0030001280BD0E0690028C6
:101DA000286822D040F080002860FEF737FD064604
:101DB00017E0E1E02868C00502D5E06980286FD10E
:101DC00094F82010D9F8002022F07C5242EA0161F8
:101DD000C9F8001018E000BFFEF720FD801B0228A4
:101DE000B2D82868C005F7D5EAE720F0800028605F
:101DF000FEF714FD064604E0FEF710FD801B0228E6
:101E0000A2D82868C005F7D42078000729D57D48D6
:101E10006169643000298146016811D041F00101F7
:101E20000160FEF7FBFC064605E000BFFEF7F6FC8E
:101E3000801B022888D8D9F800008007F6D510E06A
:101E400021F001010160FEF7E9FC064605E000BF54
:101E5000FEF7E4FC801B022888D8D9F80000800730
:101E6000F6D42078800625D5A0690028286810D0EF
:101E700040F480502860FEF7D1FC064605E000BF24
:101E8000FEF7CCFC801B022876D828688004F7D5A2
:101E900010E020F480502860FEF7C0FC064606E003
:101EA0003BE100BFFEF7BAFC801B022864D828681B
:101EB0008004F7D4207840076DD5DFF84C91D9F82D
:101EC000001041F48071C9F80010FEF7A7FC064627
:101ED00005E000BFFEF7A2FC801B64284CD8D9F8AF
:101EE0000000C005F6D5474EA0686036012818D01E
:101EF000D8B1052825D0852830682AD020F00100E7
:101F00003060306820F004003060306820F08000DD
:101F10003060A06841F2883A78B3FEF77FFC8146D2
:101F200026E0306840F00100F2E7306820F0010060
:101F30003060306820F080003060306820F00400AD
:101F4000E6E7306840F004003060306820F0800040
:101F500005E040F004003060306840F08000306000
:101F6000DFE700BFFEF75AFCA0EB0901514503D89B
:101F700030688007F6D50EE088E0FFE7FEF74EFCFC
:101F8000814605E0FEF74AFCA0EB090151457DD8EA
:101F900030688007F6D4606AC0B34146DFF86480D9
:101FA00008F120080968C1F3C20103296FD0022893
:101FB000286820F08070286003D0FEF72FFC0446CC
:101FC00080E0FEF72BFC064605E000BFFEF726FC8E
:101FD000801B022873D828688001F7D4E26A40F297
:101FE000F331386854F8283F884340EA0210184318
:101FF0003860217B4FF4FE0C22894FF0FE47208A87
:10200000267D04E0104402580048025887E0490247
:10201000521EA1F5007189B2401EC2F3080211439D
:10202000761E0CEA004001433E4807EA066211436F
:102030003C4AC8F800100832016821F00101016033
:1020400011684FF6F876236AB14341EAC301116083
:102050000168A26921F00C01114301600168E26985
:1020600021F0020111430160016841F480310160F7
:10207000016841F400310160016841F48021016090
:10208000016841F001010160286801E017E01DE0EE
:1020900040F080702860FEF7C1FB044605E000BFF9
:1020A000FEF7BCFB001B022809D828688001F7D581
:1020B00035E000BFFEF7B2FB001B022802D9032067
:1020C000BDE8F08728688001F4D428E03968012849
:1020D000D8F8000021D0A26A01F0030393421CD17A
:1020E000E26AC1F305118A4217D1216BC0F30802DD
:1020F000491E8A4211D1616BC0F34622491E9142AA
:102100000BD1A16BC0F30642491E914205D1E16B90
:10211000C0F30660491E814201D00120D0E70020B3
:10212000CEE700002C440258401EB0F1807F10B56D
:1021300001D3012010BD4FF0E02460610F21601732
:1021400001F031FA0020A0610721216110BD30B5F6
:1021500090F88010012918D0012280F880202421D5
:10216000C0F884100022202450F8641B0B680D680E
:1021700023F0005325F001050D60026050F8641C47
:102180000B6004620277104630BD022030BD70B58E
:10219000044690F8800001281DD0012284F8802098
:1021A0002420C4F8840020680568026822F0010237
:1021B00002602068826822F060620A4382602046E2
:1021C00000F0D6FE2268202100201560C4F884109B
:1021D00084F8800070BD022070BD70B5044690F890
:1021E000800001281DD0012284F880202420C4F81A
:1021F000840020680568026822F0010202602068FD
:10220000826822F060420A438260204600F0B0FEFD
:102210002268202100201560C4F8841084F8800012
:1022200070BD022070BD10B5040003D0D4F8840046
:1022300010B107E0012010BD002084F88000204686
:1022400000F026F82420C4F884002068016821F0FA
:1022500001010160204600F041FF0128EBD0A06A97
:1022600010B1204600F0A6FE2068416821F490419C
:1022700041602068816821F02A018160206801683E
:1022800041F0010101602046BDE8104000F0F6BEBB
:1022900010B586B0044614216846FEF76FF81A4957
:1022A000206888422ED11948016841F01001016070
:1022B000006800F01000059014481038016841F0E3
:1022C00001010160016801F001010591016841F01F
:1022D0000101016000680221012200F00100059067
:1022E000032307244FF400708DE81F00084C694653
:1022F0002046FEF769F94FF4806069460090204659
:10230000FEF762F906B010BD0010014050450258BA
:1023100000000258FEE7000000B587B014216846AF
:10232000FEF72CF80A48016841F0040101600068DA
:102330000021012200F0040005904FF400508DE8C8
:10234000070004486946FEF73FF907B000BD0000EA
:1023500040450258000802580F4930B502250B6865
:102360004FF44034002223F001030B604FF0105370
:102370000C600A4C4D630A64CB634C648863084864
:10238000826C012AFCD1086840F0010008600868EE
:10239000C007FCD130BD0000001000521001E00168
:1023A00000100050F0B5114CC1EB01160021059D45
:1023B00000EB461026684FF0105743EA024307EB44
:1023C0004000C2F5F07226F0010626600226216068
:1023D000E66121612264E560E0636364206840F0A7
:1023E000010020602068C007FCD1F0BD0010005241
:1023F00010B586B014216846FDF7C0FF0D4801688E
:1024000041F004010160006800220B4C022100F041
:10241000040005902046FEF7FCF900210220009000
:1024200001222046CDE9012103916946FEF7CCF84F
:1024300006B010BD40450258000802582DE9FE4F75
:1024400081460068882493468D888C2204EBCB1744
:102450008A46C3689421BE46C459C3F30B432B4438
:1024600004F470441F04019702EBCB1240F80E40B5
:1024700001EBCB13DAF800709C214FF0AC0C01EBB0
:10248000CB1440F2077102910CEBCB11D9F800C0CC
:1024900098250020CDF800C0A02605EBCB15DCF870
:1024A0000CC006EBCB16CCF30B4C0CF1010C07EB7C
:1024B0000C08DDF800C0019F48EA07084CF80E80C0
:1024C000D9F80070BAF80CC0B846FF68C7F30A071D
:1024D00067444FEA074E58F8027007F4704C48F80A
:1024E00002C0D9F800C0DAF80870DCF80C80C8F334
:1024F0000A0808F10108B84448EA0E084CF80280BE
:10250000D9F80020D75827F00707D750D9F800701E
:10251000DAF81020FA509AF831209AF818304FEA79
:10252000022C9AF83220120442EA0362D9F80030F1
:102530001F5918519AF8303043EA0C031343D9F865
:1025400000201351D9F80020535923F0FF035351B1
:10255000D9F80020DAF814305351D9F800209359F3
:10256000029CA3439351D9F80030DAE907242243AF
:102570009A51D9F8002053585050D9F80020DAF871
:1025800024005050DAF81000C8B301283AD00428CB
:102590003AD0022838D0032836D0072834D001207A
:1025A000D9F80030B02505EBCB11B42284245D5856
:1025B00002EBCB1205F0E0255D50DAE9003504EBC3
:1025C000CB14EB1ABAF8285043434543D9F800001E
:1025D000DB1D43EA05434350D9F8000081586FF3EF
:1025E0000A018150D9F80000DAF82C108150D9F88E
:1025F0000000015941F001010151BDE8FE8FFFE7E4
:102600000420CDE70320CBE70220C9E71FB5FEF782
:10261000CDFA00208DF80F0013218DF80810032249
:102620008DF80B208DF80E0001248DF800404FF03E
:1026300010538DF80D008DF80A0001938DF80100FC
:102640008DF809008DF80C006846FEF781FA042029
:10265000FEF7BAFA1FBD0000F0B58FB0342168460E
:10266000FDF78CFE2A48016841F010010160006806
:102670000024284A2B2100F010000D9026484FF42A
:102680008E754FF4927740F20B2300F11C0C40F250
:10269000132602600C2244608460C46004614461BB
:1026A00084618CE8EE0080F8364080F8354080F890
:1026B0003440FEF739F94FF4F0774FF488760DF196
:1026C000100C0220CDE90047FF210B96CDE9024610
:1026D0008CE813004202694607A805234FF0105505
:1026E00080E8AC008DF8304000228DF831400A4877
:1026F0008DF83240FEF7EEF84FF07F40FFF72CFEEA
:1027000001220648D103FEF784F80FB0F0BD0000A7
:102710003445025800100050780A0020000C02587E
:10272000FEE7FEE7704700002DE9F047454D0446FF
:1027300089464FF0000A2868C04380070AD0414EFE
:10274000283E306820F080603060FEF767F807466A
:10275000B04608E00120BDE8F08700BFFEF75EF854
:10276000C01B022867D8D8F800000001F6D4206802
:1027700029684FF4FE0721F47C313E0241EA003023
:102780002860207AA389B4F804C040022D4D2D4959
:102790005B1E227CACF1010C1035091DA0F5007008
:1027A00080B2521ECCF3080C07EA034340EA0C0047
:1027B000184306EA0262104328600868626920F044
:1027C000C000104308600A68A06922F0200202439A
:1027D0000A60281D0A6822F010020A6002684FF69B
:1027E000F873E4699A4342EAC40202600868B9F1E6
:1027F000000F40F010020A6011D00868B9F1010F13
:1028000011D040F400100860D8F80000444640F0B1
:102810008060C8F80000FEF701F805460DE0086882
:1028200040F40020EFE740F48010ECE7FDF7F6FFFE
:10283000401B022801D903208DE720680001F5D54F
:10284000504688E7284402582DE9F047454D044694
:1028500089464FF0000A2868C04380070AD0414EDD
:10286000283E306820F080503060FDF7D7FF0746E3
:10287000B04608E00120BDE8F08700BFFDF7CEFFBD
:10288000C01B022867D8D8F800008000F6D4208842
:1028900029684FF4FE0721F07C713E0241EA0050A6
:1028A0002860207AA389B4F804C040022D4D2D4938
:1028B0005B1E227CACF1010C1835091DA0F50070DF
:1028C00080B2521ECCF3080C07EA034340EA0C0026
:1028D000184306EA0262104328600868626920F41F
:1028E0004060104308600A68A06922F40072024345
:1028F0000A60281D0A6822F480720A6002684FF696
:10290000F873E4699A4342EAC40202600868B9F1C4
:10291000000F40F480720A6011D00868B9F1010F0D
:1029200011D040F080700860D8F80000444640F0B4
:102930008050C8F80000FDF771FF05460DE00868FB
:1029400040F48000EFE740F40000ECE7FDF766FF9D
:10295000401B022801D903208DE720688000F5D5AF
:10296000504688E728440258704710B5FDF75CFFD1
:10297000BDE81040012018F0C1BC0000F0B5CBB09C
:102980004C212EA8FDF7FAFC202141A8FDF7F6FC0A
:10299000B8216846FDF7F2FC0220FEF767F92B48E4
:1029A0000024016841F440410160016801F44041A4
:1029B000499101688904FCD5254802250168012256
:1029C00005261304702721F00301891C016038A932
:1029D0003795082081E8E000CDE93E043B952EA81C
:1029E0003D95CDE92E233C954094FFF707F908B1BA
:1029F00072B6FEE741AE40203F21032286E8160072
:102A000003014890CDE944400721CDE9460341A8A0
:102A1000FEF7E4FE08B172B6FEE709AF1920C8213F
:102A200087E8230014220C9546076846CDE90D245B
:102A30004FF400730096CDE90F34FEF797FA0028A3
:102A400001D072B6FEE74BB0F0BD00001848025846
:102A5000284402583249F0B532480A6842F47002FC
:102A60000A60016801F00F01032904D2016821F016
:102A70000F01C91C0160DFF8B0E04FF0000C2A4ADA
:102A80001032DEF80010294B41F00101CEF80010A1
:102A9000C2F800C0DEF800101940CEF8001001683E
:102AA00001F00F01032904D9016821F00F01C91CAD
:102AB00001601D4C1C4A18341D48251D1D491E4B24
:102AC0002E1D2832C4F800C0141DC5F800C0251DF5
:102AD000C6F800C02E1D1160371D2360391D0A1D68
:102AE0002860131D104CC6F800C06034134E43F22A
:102AF000D2053860C1F800C07703094910608039F9
:102B0000C3F800C0DEF80000EA0620F48020CEF80A
:102B10000000C4F800C035600F600A60F0BD00001E
:102B200088ED00E000200052004402587FEDF6EAF4
:102B300080020101000202020000FF010040005279
:102B400010B5144C002220212046FDF762FE14200F
:102B500000F022F8002220464021FDF75AFE142002
:102B600000F01AF8012220462021FDF752FE142021
:102B700000F012F8002220462021FDF74AFE012233
:102B800020464021FDF745FEBDE81040142000F02E
:102B900003B8000000100258002208B50DE000BF85
:102BA000ADF8002005E000BFBDF80010491CADF8ED
:102BB0000010BDF800100429F6D3401EF0D208BD65
:102BC00010B586B014216846FDF7D8FB2B48016884
:102BD00041F010010160016801F0100105910168E8
:102BE00041F010010160016801F0100105910168D8
:102BF00041F010010160016801F0100105910168C8
:102C000041F010010160006820211D4C112200F0EC
:102C100010000590002000916946CDE90120039045
:102C20002046FDF7D1FC4020694600902046FDF784
:102C3000CBFC0121019110200291694600902046B1
:102C4000FDF7C2FC0820694600902046FDF7BCFC59
:102C5000012220462021FDF7DCFD012220464021F3
:102C6000FDF7D7FD002220461021FDF7D2FD0122FD
:102C700020460821FDF7CDFD06B010BD40450258A5
:102C80000010025810B5114C002220212046FDF7FB
:102C9000C0FD1420FFF780FF012220464021FDF7F0
:102CA000B8FD1420FFF778FF012220462021FDF710
:102CB000B0FD1420FFF770FF002220462021FDF711
:102CC000A8FDBDE810401420FFF766BF00100258B1
:102CD0002DE9F041154E002580462C46680601225C
:102CE000070E30462021FDF794FD1420FFF754FF16
:102CF00040213046FDF780FD00F0010530463D43A0
:102D000000222021FDF785FD1420FFF745FF641CFC
:102D1000E4B2082CE2D3B8F1010F04D0FFF7B2FF00
:102D20002846BDE8F081FFF70BFFF9E700100258D5
:102D300010B5104C012240212046FDF76AFD01220A
:102D400020462021FDF765FD1420FFF725FF002216
:102D500020464021FDF75DFD1420FFF71DFF0022F6
:102D600020462021FDF755FDBDE810401420FFF757
:102D700013BF00000010025810B5114C0022202192
:102D80002046FDF746FD1420FFF706FF00222046EF
:102D90004021FDF73EFD1420FFF7FEFE01222046F4
:102DA0002021FDF736FD1420FFF7F6FE0122204614
:102DB0004021FDF72EFDBDE810401420FFF7ECBECA
:102DC0000010025810B5154C012240212046FDF795
:102DD00020FD1420FFF7E0FE012220462021FDF710
:102DE00018FD1420FFF7D8FE40212046FDF704FD12
:102DF00000284FF000024FF02001204606D0FDF7DA
:102E000008FD1420FFF7C8FE002010BDFDF701FDEE
:102E10001420FFF7C1FE012010BD00000010025871
:102E200070B5164E00240546280601D5012200E0A3
:102E3000002230464021FDF7ECFC1420FFF7ACFEE9
:102E4000012230462021FDF7E4FC1420FFF7A4FE08
:102E5000002230462021FDF7DCFC072C04D10122A2
:102E600030464021FDF7D5FC6806641C050EE4B22F
:102E7000082CD9D3BDE87040FFF7A4BF001002585A
:102E800000B585B014216846FDF778FA002001905E
:102E9000102102900390034800916946FDF794FBCE
:102EA00005B000BD0010025800B585B01421684679
:102EB000FDF764FA012000211022CDE90020CDE9C0
:102EC000020103486946FDF77FFB05B000BD000025
:102ED000001002581FB500208DF80C00FFF770FE9F
:102EE000FDF70CFB0B216A4648F24010FDF7DBFAB8
:102EF000012148F2470003AAFDF7D5FA9DF800002A
:102F0000392802D0012004B010BD0020FBE70000EA
:102F100030B58BB048F24E1500246A462A21284667
:102F2000FDF7C1FA00212846FDF718FB0F489DF870
:102F3000001001F00F0141704178A9B141780529D5
:102F400012D86B4609E003EBC40100EB4402651C98
:102F5000ECB28D889581498851804178A142F2D8A0
:102F6000012101700BB030BD0021FAE7200B0020D9
:102F700030B5416EB9B101680D4B03F108048A68A0
:102F80008968C2F34262490F5D5C615C2D01B5FB4B
:102F9000F1F1A0F86A10995CA25C0901B1FBF2F1B1
:102FA000A0F8681030BD0121A0F86A10F8E7000011
:102FB0002AF8019090F82810C90706D00168C36A62
:102FC0004A6822F400321A434A6090F828108907B0
:102FD00006D50168036B4A6822F480321A434A60BE
:102FE00090F82810490706D50168436B4A6822F417
:102FF00080221A434A6090F82810090706D5016814
:10300000836B4A6822F400421A434A6090F8281001
:10301000C90606D50168C36B8A6822F480521A4338
:103020008A6090F82810890606D50168036C8A68C2
:1030300022F400521A438A6090F82810490611D5EC
:103040000168436C4A6822F480121A434A60416C5A
:10305000B1F5801F06D10168836C4A6822F4C00272
:103060001A434A6090F82810090606D50168C26C18
:10307000486820F40020104348607047F8B50026E7
:103080000446C0F88C60FDF7C9FB054620686FF068
:103090007E470068000708D500222B464FF4001138
:1030A0002046009700F006FA60B9206800684007E3
:1030B0000AD500222B464FF480012046009700F0ED
:1030C000F9F908B10320F8BD2020C4F88400C4F841
:1030D0008800E666002084F88060F8BD2DE9F043A2
:1030E00004468068E14E87B0E14B2168D4E90427AB
:1030F000D4F81CC010430A68002547EA0C0738437F
:10310000324002430A602068E268416821F440517D
:10311000114341602268A1699A4201D0206A0143AB
:103120009768DFF850C3D44ED44807EA0C070F4322
:1031300097602168676ACA6A22F00F023A43CA623E
:103140002268B2420ED1006800F0380018286FD013
:103150007ADCB8B308286CD010286BD18BE0282813
:1031600068D18EE0C6498A4209D1006800F00700A4
:1031700006285FD2DFE800F0507D7F818385C1495A
:103180008A4209D1006800F0070006287BD2DFE8F8
:1031900000F0437072747678BB498A4209D10068A6
:1031A00000F0070006286ED2DFE800F0366365679E
:1031B000696BB6498A420BD1006800F00700062807
:1031C00061D200E043E0DFE800F0275456585A5C33
:1031D000AF498A4206D1006800F0380018284CD068
:1031E000B7DD31E0AB498A4209D1006800F0070041
:1031F000062848D2DFE800F0103D3F414345A6498C
:103200008A420BD1006800F0070006283BD2DFE8B5
:1032100000F0033032343638002035E09F498A42CE
:1032200009D1006800F03800182826D091DD0BE0A5
:1032300023E01EE027E09A498A420AD1006800F0A4
:103240003800182819D084DD202888D11CE00120FE
:103250001AE09A4217D18948001D006800F0070063
:10326000062810D2DFE800F0030507090B0D022045
:103270000AE0042008E0082006E0102004E02020F6
:1032800002E0402000E080208649DFF81C829A425C
:10329000864A4FF400434FEA21174FF000064CD105
:1032A00010281AD006DC022809D004280BD00828E0
:1032B0007DD10DE020283CD0402878D13BE0FDF7BF
:1032C000FFFC014610E06846FDF70CFD01990BE09C
:1032D00003A8FDF7A9FD049906E01068800604D54F
:1032E0001068C0F3C100C140B1B3606A676838F8C4
:1032F000102007EB4703B1FBF2F0834257D8B0EB45
:10330000073F54D8002308461946FCF7EDFF030E8B
:103310007A08000243EA012180183A4671410023ED
:10332000FCF7E2FF624AA0F5407191423FD8216864
:103330004CE03946D9E71946D7E7D4F81CC04FF618
:10334000EF799C4552D108281AD006DC60B10128DB
:103350000DD004282BD10EE039E0102815D02028FC
:1033600040D040287CD13FE0FEF788FB01E0FEF72B
:1033700097FB014610E06846FDF7B4FC01990BE0AD
:1033800003A8FDF751FD049906E01068800604D5F6
:103390001068C0F3C100C140C9B1636A606838F801
:1033A0001330B1FBF3F1490001EB500100E057E0AD
:1033B000B1FBF0F080B2A0F11001494550D84FF6B2
:1033C000F0732168C0F3420218401043C860012026
:1033D000A4F86A00A4F8680028462667666707B064
:1033E000BDE8F0833946D8E71946D6E7082819D052
:1033F00005DC58B101280CD0042831D10DE010288B
:1034000015D020282ED040282AD12DE0FEF736FBFB
:1034100001E0FEF745FB014610E06846FDF762FC5F
:1034200001990BE003A8FDF7FFFC049906E0106882
:10343000800605D51068C0F3C100C1400029C6D080
:10344000636A606838F81330B1FBF3F101EB5001A7
:10345000B1FBF0F080B2A0F1100149457FF667AFF3
:103460000125B4E73946EBE71946E9E7F369FFCFF1
:10347000000C0058FFF4FF110010014054440258A2
:103480000044004000480040004C00400050004014
:103490000014014000780040007C0040001801400A
:1034A000001C01400090D00312F801900044025823
:1034B000FFFC0F002DE9F0479A4617460E460446DA
:1034C000089D4FF000094FF0200839E0681C37D004
:1034D000FDF7A4F9A0EB0A00A84222D80DB320689A
:1034E000016849072CD5C069C043000528D423686A
:1034F0004FF40061196221680B6823F4D0730B60EC
:1035000021688B6823F001038B60C4F88480C4F8C1
:103510008880C4F88C8000BF032084F88090BDE8C8
:10352000F08721680B6823F4D0730B6021688B68E7
:1035300023F001038B60C4F88480C4F88880EBE733
:103540002068C06936EA000004D00020B842BDD02F
:103550000020E4E70120F9E71148002110B50F4CE5
:103560000C224FF4E1330460C0E90131C160C0E9CD
:1035700004128161C161016241628162FEF753FE02
:1035800007480021FEF729FE05480021FEF7FFFD50
:10359000BDE810400248FEF7DABD0000001001400F
:1035A000E8090020FEE7090700284FEA116104DB63
:1035B00000F1E02080F80014704700F00F0000F1E7
:1035C000E02080F8141D704702E008C8121F08C1EF
:1035D000002AFAD170477047002001E001C1121F94
:1035E000002AFBD1704770B5002504466FF02F0606
:1035F00008E0206805EB8502411C216006EB4202D1
:10360000007885182068007800F004F80028F0D1D0
:10361000284670BD3038092801D8012070470020A5
:10362000704700000A48442110B501F02CFA17F049
:103630005BFE084C0023042210216060064817F04E
:1036400039FCA06003F08CF80020207010BD000051
:10365000740C002088000020196800902DE9F041CA
:1036600000251C46152A884606462DD2DFE802F0C2
:103670000B1A1C2D363A4952545D60707E80909D25
:10368000ADB2B7BCCF0030460CF0C4FD0546404695
:103690000CF0C0FD05EBD57100EBD0704910A1EB2B
:1036A0006000A4E025800EE030460CF0B3FD074634
:1036B00040460CF0AFFD07EBD77100EBD07049101E
:1036C000A1EB60008EE0658075E030460CF0A2FD55
:1036D000074640460CF09EFD381A6AE025809AE0C5
:1036E000608068E030460CF095FD054640460CF0E1
:1036F00091FD05EBD57100EBD0704910A1EB600096
:1037000088E030460CF086FD054640460CF082FD10
:10371000281A7FE025806BE030460CF07BFD0546E3
:1037200040460CF077FD281A61E00846258019E034
:1037300030460CF06FFD054640460CF06BFD01462F
:1037400005EBD57001EBD1714010A0EB610007E0F3
:1037500030460CF05FFD054640460CF05BFD281A34
:10376000208040460CF023FD4042B9E7258018E058
:1037700030460CF04FFD054640460CF04BFD01462F
:1037800005EBD57001EBD1714010A0EB610007E0B3
:1037900030460CF03FFD054640460CF03BFD281A34
:1037A000208030460CF003FD9AE708460CF032FD0D
:1037B00040426580208020883188084420807088BD
:1037C000618808446080BDE8F08108460CF022FD65
:1037D00040420CE008460CF01DFD40421AE0304625
:1037E0000CF018FD20806EE730460CF013FD2080B1
:1037F00030460CF0DCFC054640460CF0D8FC05EBEE
:10380000D57100EBD0704910A1EB600068E730463D
:103810000CF000FD208030460CF0C9FC0546404607
:103820000CF0C5FC281A5BE770B5B1F90040B2F99D
:1038300000309C4200DD23460380B1F90250B2F90A
:103840000240A54200DD2C464480B1F90460B2F983
:103850000450AE4200DA35468580B1F90610B2F95F
:103860000620914200DB1146C180AB424FF00100BF
:1038700001DC8C4200DD002070BDF8B51646B1F9C0
:1038800000200D46B0F9001004460020914212DBE2
:10389000B4F90220B5F902309A420CDBB4F90420E5
:1038A000B5F904309A4206DCB4F90620B5F90630C1
:1038B0009A4200DC0120002E33D0ADF800103246D1
:1038C00060886946ADF80200284600F047F80028F5
:1038D00027D0A0883246ADF8000069466088ADF870
:1038E0000200284600F03AF800281AD02088324614
:1038F000ADF800006946E088ADF80200284600F007
:103900002DF800280DD0A0883246ADF80000694699
:10391000E088ADF80200284600F020F8002800D02A
:103920000120F8BDB0F90020B1F904309A4213DC4F
:10393000B0F90420B1F900309A420DDBB0F9022051
:10394000B1F906309A4207DCB0F90600B1F902106D
:10395000884201DB01207047002070472DE9FC41BF
:103960000546B1F900000E461446B5F9001088422C
:103970003ADBB5F90470B84236DCB6F90200B5F9A5
:103980000230984230DBB5F9062090422CDC002C46
:1039900075DD781AD21A401C521C00B212B200EB2C
:1039A000D07002EBD27240105210904200DB1046F1
:1039B000844200DD0446ADF800102888002231461C
:1039C0002044ADF804006888ADF8020068882044FF
:1039D000ADF806006846FFF7C1FF40B1BDF804002E
:1039E0002044ADF804003FE00020BDE8FC81E888F9
:1039F00000223146001BADF80200E888ADF8060051
:103A00006846FFF7ABFF28B1BDF804002044ADF8CD
:103A1000040011E0A88800223146001BADF8000028
:103A2000A888ADF804006846FFF798FF50B1BDF8CC
:103A30000000001BADF80000BDF80200001BADF84F
:103A4000020016E068880022ADF80200314668885E
:103A50002044ADF806006846FFF780FF70B1BDF85E
:103A60000000001BADF80000BDF806002044ADF8D2
:103A700006003146684615F0F1FEB6E7FFE7012083
:103A8000B3E710B5B1F90040B2F900309C4200DA5A
:103A900023460380B1F90240B2F902309C4200DAB9
:103AA00023464380B1F90440B2F904309C4200DD62
:103AB00023468380B1F90610B2F90620914200DC5A
:103AC0001146C18010BD034670B580881C88DD8812
:103AD0005E88001B1980401C5A80AA1B01B2184640
:103AE000521C14B20CF0B4FB21461846BDE87040DD
:103AF0000CF0A9BB00284FF0000201DA404201227D
:103B0000002901DA4942921C884207D9C1EB011110
:103B1000103201EB4101B1FBF0F305E0C0EB001006
:103B200000EB4000B0FBF1F30020D9B216290BD90D
:103B30002C2900D80120292900D8401C252900D88B
:103B4000401C20290BD90BE0022900D301200629B3
:103B500000D3401C0A2900D3401C0F2900D3401C6D
:103B6000D106184401D5C0F15A0091074FEAC2713D
:103B700005D509B1B43005E0C0F1B40002E009B1E7
:103B8000C0F5B47080B270472DE9FF4F87B01D4675
:103B90008B46DDE91476DDF85890022E55D3002FC0
:103BA00053D001F0C1FC80460DF0AAFCD8F82410D7
:103BB00000F11004D0F808A009B1404688470799E1
:103BC00004A85A46FFF730FE00283ED0BDF810008A
:103BD000002D2188A0EB010001B2ADF81010BDF856
:103BE00012006288A0EB0200ADF81200BDF81400CC
:103BF0002288A0EB020000B2ADF814006388BDF883
:103C00001620A2EB0302ADF8162012D098F8082077
:103C1000D2070ED1411A0020491C09B207E02A5CE4
:103C2000802A01D9FF2200E000222A54401C884249
:103C3000F5DBD8F8140058B1099B04AACDE900655A
:103C400051462046029708F0A5FA0BB0BDE8F08F68
:103C5000B9F1000F0AD001A8009604AA514680E8E5
:103C6000A002099B204608F033F8EEE7099B04AA5E
:103C7000CDE9006551462046029708F0C3F8E4E715
:103C80002DE9FF4F87B01D469146DDE91476DDF83A
:103C900058A0022E57D3002F55D0089A014605A8E8
:103CA000FFF7C2FD00284ED001F03EFC80460DF02B
:103CB00027FCD8F8241000F11004D0F808B009B19E
:103CC00040468847BDF81400002D2188A0EB010074
:103CD00001B2ADF81410BDF816006288A0EB020026
:103CE000ADF81600BDF818002288A0EB020000B263
:103CF000ADF818006388BDF81A20A2EB0302ADF8F6
:103D00001A2012D098F80820D2070ED1411A0020AC
:103D1000491C09B207E02A5C802A01D9FF2200E091
:103D200000222A54401C8842F5DBD8F8140068B100
:103D3000CDF8009005AA03975946CDE90165089B87
:103D4000204617F02DFF0BB0BDE8F08FBAF1000F41
:103D50000BD002A8594605AA80E8A004089B20467B
:103D6000CDE9009617F0ACFCEDE7CDF8009005AA80
:103D700003975946CDE90165089B204617F054FD8D
:103D8000E1E70000D0F87821C2F309438B4202D268
:103D900004490A4002E0591A61F31942C0F8782137
:103DA00070470000FFFF00FC2DE9FC5F054617F09F
:103DB0009BFA554C00210190E8686060284617F096
:103DC000D7F96068C16BA9B115F05EFF15F0D2FE9E
:103DD00060684E4AD0F8781111427DD0A3460DF0AC
:103DE00026FC002869D0DBF804005C464169002904
:103DF00063D108E0454AD0F87811D2431140C0F8A9
:103E00007811BDE8FC9F0DF07BFB054616F036F8F7
:103E1000A8690028FCD16068B0F90000400000F0FB
:103E200053FFA968824628688946814200D16868A4
:103E3000804660680DF078FB0646A34600242FE01C
:103E40000A1992F85A214ABB01EBC401B1F95C503E
:103E5000B1F95A00B1F85E2016FB0501101A401C9A
:103E600000B24F004000009010E000BF009A08EB45
:103E70000701504600F0EEFF009A09EB070051469B
:103E800000F0E8FF6D1C2DB207EB4607DBF80400DD
:103E900000EBC400B0F96000A842E7DA641CA4B2E9
:103EA000DBF80410D1F87821C2F30942A242C7D846
:103EB000BAF1000001D000F08DFFDBF804004FF4F0
:103EC00080715C465A3001F0ABF86068202100F543
:103ED000AD7001F0A5F800E010E061680B4AD24334
:103EE000D1F878011040C1F87801019817F0F6F97F
:103EF0000146606883690BB12268984700F0C2FEF2
:103F0000BDE8FC5F00F004B8280000200000FF03BB
:103F100010B5044C2068002803D012F08FFB00205D
:103F2000206010BDAC0000200148182100F0ABBD9E
:103F3000800C00202DE9F84F8146DDE90A0A13B90B
:103F4000B0F5807F7ED0BAF900604FF0FF350224D3
:103F5000C6F10006002B06FB00F605EB262636B25E
:103F6000A9F80060BAF90270C7F1000707FB00F773
:103F700005EB27252DB2A9F80250BAF90070A1EB84
:103F8000070101FB00F104EB212109B2A9F804109B
:103F9000BAF90270A2EB070202FB00F204EB222046
:103FA00000B2A9F806007ED00A2593FBF5F6704210
:103FB000771C00EB800003EB400430B201F0D4FE2C
:103FC000804638B201F0D0FE5A36009030B201F08F
:103FD000CBFE5A37834638B201F0C6FEC4F10A015F
:103FE000DDF800C0B9F9003001FB08F601FB0BF168
:103FF00000FB04100CFB046690FBF5F096FBF5F15A
:10400000B9F90220B9F904C04FEA601B49110BFB52
:1040100003F401FB03F80BFB0CF001FB0CF301FBB9
:1040200012450BFB028601FB12070BFB023CB9F9A0
:10403000062001FB124401FB12010BFB02880BFB63
:10404000023200E022E0BAF8000000EBA52300EB0A
:10405000A42400EBA72500EBA12118B2BAF8023086
:1040600024B203EBAC2703EBA82C03EBA62603EB4F
:10407000A22832B23BB22DB209B20FFA8CF60FFA77
:1040800088F7844224DAA44623E00CE00020491E8D
:10409000A9F80410521EA9F80620A9F80000A9F8F2
:1040A0000200BDE8F88FBAF800203244A9F80020D9
:1040B000BAF802202A44A9F80220BAF800201144D4
:1040C000A9F80410BAF802100844A9F80600E8E7B5
:1040D0008446A94201DA884600E0A846C44505DACC
:1040E000844201DAA44606E0844604E0A94201DAEB
:1040F0008C4600E0AC46A9F800C0844201DDA4462D
:1041000000E08446A94201DD884600E0A846C44597
:1041100003DD844206DD204604E0A94201DD0846B5
:1041200000E02846A9F80400964201DA304600E093
:1041300010469F4201DA394600E01946884205DA06
:10414000964201DA304606E0104604E09F4201DA6A
:10415000384600E01846A9F80200964201DD3046D4
:1041600000E010469F4201DD394600E019468842D2
:1041700003DD964206DD324604E09F4201DD3A4609
:1041800000E01A46A9F806208BE700002DE9FE4F53
:104190000446B0F90800081AB4F90A50E389511B23
:1041A000D4F800B0B3F5807FD4E9093239D0A589BD
:1041B000002DA56B05FB00F041D0D4E90B76401132
:1041C0004D4306FB00FC07FB00F1681107FB10C51F
:1041D00006FB001103EBA52902EBA120B4F90410A2
:1041E0004FEA292780460612B94247DD002F45DBFA
:1041F000B4F90600B04241DD002E3FDB94F83400F4
:1042000042073ED5820701FB067204F114001DD45B
:1042100055004FF0020A0BEB0501524600F0BCFEC0
:1042200022E0D4E90B5606FB00F7684305FB117545
:1042300006FB010103EBA50902EBA100CEE74D430C
:10424000411103EB010902EB6510C7E702EB4205E0
:104250004FF0030A02220BEB050100F09DFEE81C63
:10426000584410F8010CA07594F83400C0071ED013
:104270001948A18A008880B2814218D10020BDE887
:10428000FE8F32B2236939B200258B4604F1180043
:10429000AA46CDE901020FF07DFA00905946BDF81B
:1042A0000000A082DDE901020FF002FADBE7E07C0A
:1042B00078B1A4F83C902046A4F83E80A4F8407061
:1042C000A4F84260656484F848A0BDE8FE4F00F0A1
:1042D00005B80120D3E7000050F801902DE9F04F18
:1042E000044690F83C0091B04FF0FF36C1B294F80C
:1042F0003E207029D4F80090D0B207DAB4F94020FB
:104300003546012A00D5002580310DE0902916DDC3
:10431000B4F940200125B4F90430521C9A4200DB64
:104320000025A1F27F114942C9B27028884609DAF6
:10433000B4F94210012900D50026803010E0002594
:10434000FF21F2E790280DDDB4F942100126B4F9FF
:104350000620491C914200DB0026A0F27F1040425B
:10436000C7B201E00026FF2794F8341060694FF0CF
:10437000000B0890DA46A07D4907CDF82CB00E90CE
:1043800042D594F848100222606C11FB050107A881
:10439000494400F00DFEA08894F84810626C10FBB0
:1043A00001F006FB00210222494404A800F000FEAF
:1043B000A18894F84800626C11FB00F310FB059093
:1043C00006FB03210222014405A800F0F1FD94F848
:1043D0003400800760D5A28894F84800616C12FB15
:1043E00000F210FB050310FB051506FB0211484403
:1043F0000B442A1801444B4412F801BC11F8010C7B
:104400000B9013F8010C46E0B4F84000B4F94220D8
:104410002844236901B204F1180081460FF0BAF96B
:104420000790B4F84200B4F94010304402B2484654
:1044300054F8103F0FF0AEF90490608E23683044BA
:1044400002B2208E284401B248460FF0A3F905902D
:1044500094F82400103C80071ED5B4F84000B4F94D
:1044600042204034284401B248460FF021F98346E7
:104470006088B4F90010304402B248460FF018F9D1
:104480000B906088304402B234F84009284401B2ED
:1044900048460FF00DF9824694F8340042464546EE
:1044A000800736D50E98C7F1FF0310FB08FC0B9868
:1044B00010FB08F6C8F1FF001BFB00CC1AFB0060E4
:1044C000CCF30721C0F3072011FB07F6022910FBEC
:1044D00003614FEA1121A17507D8022803D80020F3
:1044E00011B0BDE8F08F002702E0022800D8FF27B6
:1044F0000E98022800D80022BBF1020F00D8FF223C
:104500000B98022800D80025BAF1020F03D8FF2526
:1045100001E0FF20A075DAB1FF2A1BD0DDE907100A
:104520000BF074FF0390BDB1FF2D17D0DDE904013E
:104530002A460BF06BFF00903FB1FF2F10D03A4698
:10454000014603980BF062FF0090BDF8000009E0FF
:104550000798E7E70898E5E70598ECE70498EAE7A5
:10456000BDF80C00A0820120BAE72DE9F04704460F
:10457000B0F908000A27B4F90C100202B4F90A30A5
:1045800091FBF7F51802C4E9092068426B4200EB81
:10459000800218B205F1010801EB420601F0E4FBCC
:1045A0008146E84300B201F0DFFB8246C5F15A00C4
:1045B00000B201F0D9FB0546C8F15A0000B201F083
:1045C000D3FB0146C6F10A0000FB09F3684301FB77
:1045D00006010AFB063291FBF7F192FBF7F0491155
:1045E0004011C4E90B01A07C0FF0E3F994F83410FA
:1045F00060F3000184F83410A07C0FF0CBF9024680
:1046000094F83400A17C042962F3410084F834005A
:1046100025D0052923D0062921D020F0040084F8D4
:104620003400A0694FF40017E2894FF0FF0C20F02E
:10463000E000A588E68861F30400236807EB5201D7
:104640002362B1FBF2F165F3942084F816C066F39F
:104650005F50A163A061208AA082BDE8F08740F08E
:104660000400DCE72DE9F047444E89468046318856
:1046700021B14348434C056800200EE00020BDE80E
:10468000F08700BF00EBC00205EB8202136AA34271
:1046900001DD5B1E1362401C80B28842F2D300240D
:1046A0001BE000BF04EBC40005EB8007786810F046
:1046B000FDFB10B1012809D00DE0796841450AD110
:1046C00039891FFA89F081420ED004E078684146AA
:1046D000FBF766FE40B1641CA4B230888442E1D38B
:1046E000328801202C461AE004EBC4004FF47A72A1
:1046F00005EB80004369016A19440162914200DDC3
:1047000002620028BBD1EBE700EBC001236A05EB96
:1047100081010E6A9E4200DA0C46401C80B2904233
:10472000F2D3606810B120460FF05CFC16F0DCFD9F
:10473000002506464A464146204665610FF0B0FC1A
:1047400018B16069256278B115E020460FF04AFC87
:104750002021204600F064FC2421204600F060FC6B
:104760004FF00040206289E7304616F0B7FD6061E7
:1047700008B901206061204681E700003800002070
:1047800094000020010000800D48102110B500F0B9
:104790007AF90FF039FC40B10A4901600A494160D9
:1047A0000A4981600A49C16010BD0CF059FD00281A
:1047B000FAD1002207A013460CF056FDFEE70000D8
:1047C0008C0C00203B3B0190353E0190853F0190D1
:1047D000153B01904F7574206F66206D656D6F728B
:1047E000790000000021084610F000BC70B50C46AE
:1047F000054600262046102100F012FC28780128EA
:1048000004D0022807D0042808D00BE0288C208090
:10481000688C608006E0686A606003E00A2161607D
:104820000020A0816A681AB12146284690470646B2
:10483000304670BD2DE9FF41384CC0686060C168EA
:10484000002969D009F0E8FD606890F85000400741
:1048500062D4002660686946FFF7C8FF07466068B3
:1048600009F0DAFD266061689DF80E0001280877DE
:1048700005D00878042808D1BDF80C00A8B316F0BC
:1048800033FD6168C968C1F87C016068017801295D
:1048900006D002292DD004292FD0032932D034E0AC
:1048A0000546406D78B1B5F92420BDF900108A4263
:1048B00005D1B5F92620BDF902309A4203D0BDF9E1
:1048C000022013F0F1FE297FBDF8000028840129A1
:1048D000BDF80200688405F11C0007D009F0FEFC59
:1048E000288C698CA884E9840FE006E009F0A4FB19
:1048F000F6E7694609F090FA07E06068694609F052
:1049000055F802E0694608F083FD606809F084FD0F
:10491000002F9FD166602660BDE8FF811400002053
:104920007FB504000D4603D10CF0ECFD040025D04A
:104930002E4EF5B10020ADF80000ADF80200204683
:104940000CF0F2FD401EADF8040020460CF054FEC1
:10495000401E6A462946ADF8060002A8FEF764FF2D
:1049600000280BD0226912B102A9204690470025E9
:1049700011E0D4F878013040C4F878017FBD00BF61
:1049800004EBC50100225A3102A8FEF776FF002889
:10499000F4D16D1CADB2D4F87801C0F30940A8423F
:1049A000EED8D4F87801C0F30941202903D204EBF2
:1049B000C10002A907E03040C4F878016946C0F39D
:1049C000094004EBC0005A300BF0BAFBD4F8780170
:1049D0004FF4800101EBB06003214FEAB010C4F83E
:1049E0007801E06A16F0C4FB7FBD0000FFFF00FC09
:1049F00070B51E4615460C46114600F0F4F8AEB1EF
:104A000000222946204617F0D1F96268294620463F
:104A100017F0C6F9616819B12A46204617F0C6F9A1
:104A2000A0686560002800D1A56070BDA268294615
:104A3000204617F0BBF900222946204617F0B0F9AE
:104A4000A16819B12A46204617F0AAF96068A56046
:104A50000028EAD1656070BD4FF0000100B14168E7
:104A600008467047002802D00068091D405870476A
:104A7000002801D00068405870474FF0000100B195
:104A800081680846704700224260C91C826021F09C
:104A900003010160704770B504460068083011F0EA
:104AA00079FD050013D000220146204617F07EF95B
:104AB00062682946204617F073F9616819B12A46E1
:104AC000204617F073F9A068656000B9A560284614
:104AD00070BD2DE9F04107000D462BD055B3FFF70F
:104AE000BBFFA84204D13846FFF7D5FF04461EE0BD
:104AF0003868083011F04EFD04001BD029463846B6
:104B0000FFF7B6FF064622460146384617F048F939
:104B100032462146384617F049F92246294638469A
:104B200017F044F92A462146384617F039F920464D
:104B3000BDE8F0810020FBE770B50446006808304E
:104B400011F028FD050013D000220146204617F081
:104B500027F9A2682946204617F028F9A16819B15B
:104B60002A46204617F01CF96068A56000B9656008
:104B7000284670BD28B1416809B9806808B1002095
:104B80007047012070472DE9F04116460D46B142AD
:104B9000074626D01EB11146FFF76AFF01E0FFF776
:104BA0006CFF0446A5421CD02946384600F01BF88D
:104BB0002A462146384617F0F3F822462946384659
:104BC00017F0F4F82A463146384617F0EFF8324627
:104BD0002946384617F0E4F806B9BD60002C00D12C
:104BE0007D60BDE8F08170B50B460446FFF734FFE9
:104BF00098424FF000020AD119462046FFF732FFD3
:104C0000011E606001D0002224E0A26070BD204639
:104C1000FFF733FF9842194620460CD1FFF728FFD3
:104C2000011EA06005D02046BDE87040002217F0AC
:104C3000B7B8626070BDFFF71BFF064619462046F5
:104C4000FFF710FF054602463146204617F0A8F848
:104C5000324629462046BDE8704017F0A7B830B567
:104C60008842039C01DC18B230BD904201DB20B2C7
:104C700030BDE41A451A501A654395FBF0F018440C
:104C800000B230BD70B50E4A00263046411C02EB22
:104C9000C003C8B202289E71F8D30A4D002400BF99
:104CA00055F8340038B111F0C9FC05EBC40045F8E3
:104CB000346086718680641CE4B2102CF0D370BD21
:104CC000C0000020A40C002070B500281FD01028C0
:104CD0004FF001010BD8304B002200BF03EBC204A0
:104CE000A479E4070ED0521CD2B2022AF6D32B4C80
:104CF00000224FF0FF3300BF04EBC205AE79F60788
:104D000006D017E003EBC200817153F8320070BD8A
:104D1000AD8885420ED305D104EBC200817154F8F1
:104D2000320070BD002B04DB04EBC306B688B5422D
:104D300000D253B2521CD2B2102ADDD3002B05DBB5
:104D400004EBC300817154F8330070BD5FF00005BF
:104D500004EBC5029279D20709D06D1CEDB2102D7B
:104D6000F6D300220EA013460CF07EFAFEE704EB09
:104D7000C50291710146908054F83520104611F01B
:104D80008BFC002844F83500DFD100221048134680
:104D90000CF06AFAFEE70000C0000020A40C00201E
:104DA0004E6F2066726565206275666665722E209C
:104DB000496E637265617365204C565F4D454D5F6A
:104DC0004255465F4D41585F4E554D2E0000000044
:104DD000147C03900D4B0022114610B553F831405E
:104DE000844209D0491CC9B20229F7D3084B0021DB
:104DF00053F83140844203D103EBC100827110BDEE
:104E0000491CC9B21029F3D310BD0000C000002016
:104E1000A40C0020002803D00449884201D10020BE
:104E2000704750F8040C400870470000B80000209C
:104E3000064900220648CA6047F6FC7248600168CD
:104E400021F0010162F35F0101607047B0000020B2
:104E5000A40D002030B500F00304034601F0030563
:104E6000A54243D14EE00C78203A1C704C785C701F
:104E70008C789C70CC78DC700C791C714C795C71EE
:104E80008C799C71CC79DC710C7A1C724C7A5C72D6
:104E90008C7A9C72CC7ADC720C7B1C734C7B5C73BE
:104EA0008C7B9C73CC7BDC730C7C1C744C7C5C74A6
:104EB0008C7C9C74CC7CDC740C7D1C754C7D5C758E
:104EC0008C7D9C75CC7DDC750C7E1C764C7E5C7676
:104ED0008C7E9C76CC7EDC760C7F1C774C7F5C775E
:104EE0008C7F9C77CC7F2031DC772033202ABAD886
:104EF00005E000BF11F8014B521E03F8014B002AD8
:104F0000F8D130BDFCB1C4F1040405E011F8015B37
:104F1000521E641E03F8015BACB1002AF6D112E008
:104F20000C68203A1C604C685C608C689C60CC68A3
:104F3000DC600C691C614C695C618C699C61CC69AA
:104F40002031DC612033202AEAD802E010C9121F88
:104F500010C3042AFAD804E011F8014B521E03F8DA
:104F6000014B002AF8D130BD034610B505E000BF63
:104F700011F8014B521E03F8014B002AF8D110BD65
:104F8000034610B505E000BF11F8014B521E03F8AF
:104F9000014B002AF8D110BD034610B505E000BF53
:104FA00011F8014B521E03F8014B002AF8D110BD35
:104FB000034610B505E000BF11F8014B521E03F87F
:104FC000014B002AF8D110BD10F0030309D0C3F142
:104FD000040303E0521E5B1E00F8011B0BB1002A04
:104FE000F8D101EB012303EB014303EB016309E07B
:104FF000036043608360C360036143618361C36195
:105000002030203A202AF3D801E0121F08C0042AD9
:10501000FBD802E0521E00F8011B002AFAD17047AB
:10502000002210F0030315D0C3F1040304E000BF15
:10503000491E5B1E00F8012B63B10029F8D17047AF
:10504000026042608260C260026142618261C2614C
:10505000203020392029F3D801E0091F04C0042999
:10506000FBD802E0491E00F8012B0029FAD1704755
:10507000FF2310F003020BD0C2F1040204E000BFD2
:10508000491E521E00F8013B12B10029F8D17047A9
:105090004FF0FF3209E0026042608260C26002614C
:1050A00042618261C261203020392029F3D801E0B9
:1050B000091F04C00429FBD803E000BF491E00F803
:1050C000013B0029FAD1704770B500240D46064611
:1050D0002146304612F003FB38B14168641CE4B24B
:1050E000402C65F3CB214160F2D340243046214669
:1050F00012F0F5FA002807D04168641CE4B2FF2CD6
:1051000065F3CB214160F1D370BD00002DE9F0477C
:10511000170A144686B08A46164605464FF0000820
:1051200023E05146284612F0DAFA814651462846D5
:1051300012F05EFA06EB002084B2484602AA21462D
:1051400000F026FB012807D0380610D5BAF1000F71
:1051500007D04FF0000A08E0BDF8080006B0BDE82F
:10516000F087284612F002FA0546002DD9D124F422
:10517000FE40292804D02A2802D0CDF8008002E081
:10518000024800680090BDF80000E7E74CF8019085
:105190002DE9F8434FEA1228154689461746064678
:1051A000AEE04946304612F09AFA044640680105DE
:1051B00070D481066ED0400505D425F4FE424946E0
:1051C00030461AF0D3F825F4FE40302859D024DCBC
:1051D000112869D010DC052850D006DC01285DD0EC
:1051E000022845D004286CD148E0062846D007287C
:1051F00044D0102865D157E0162858D006DC122874
:1052000052D0132850D015285BD150E017284ED02B
:1052100018284CD0202854D14CE060284AD010DC0B
:10522000402838D006DC31282ED0322842D033280E
:1052300047D12CE042283DD0502832D0542840D1CC
:1052400038E048F28102811A904214D009DC7228B9
:1052500030D091282ED000F5FF40B0F5803F30D1FE
:1052600009E0012929D0022924D01F2929D121E0D0
:10527000A088400423E06068800020E0A08800044B
:105280001DE0606880021AE06068400217E0606814
:10529000000214E015E06068C00110E0A088C004BE
:1052A0000DE0606840010AE06068C00307E06068E4
:1052B000800304E06068400301E06068400000286B
:1052C00021DB4946304612F093F907EB00206A468D
:1052D00085B22046294600F097FA012808D05FEAF7
:1052E000086010D5B9F1000F06D04FF0000907E0B3
:1052F000BDF90000BDE8F883304612F037F90646E4
:10530000002E7FF44EAF25F4FE4022280FD004DC9F
:105310000328EFD0072804D10BE0312803D0C028A0
:1053200003D00020E6E70F20E4E70720E2E7FF20B4
:10533000E0E74FF48070DDE72DE9F8434FEA1228EB
:10534000144689461746064647E04946304612F05D
:10535000C6F90546406801051DD481061BD04005ED
:1053600005D424F4FE424946304619F0FFFF24F4E8
:10537000FE402C2809D00C38B0F5004002D0A128FE
:1053800009D11FE0A888800403E06868C10230D416
:105390000003002823DB4946304612F029F907EBC9
:1053A00000206A4684B22846214600F069FA0128A6
:1053B0000BD05FEA086012D5B9F1000F09D04FF0A9
:1053C00000090AE06868C000E3E79DF80000BDE856
:1053D000F883304612F0CAF80646002EB5D124F400
:1053E000FE402C2807D06D2805D0AD38B0F5004F11
:1053F00001D0FF20EBE70020E9E700002DE9F843AA
:105400004FEA1228144689461746064643E04946A5
:10541000304612F064F90546406801051DD4810646
:105420001BD0400505D424F4FE424946304619F00D
:105430009DFF24F4FE406E2809D07F2804D08E38CA
:10544000B0F5004F09D105E06868000103E0686825
:10545000800100E0686800281FDB4946304612F0F2
:10546000C7F807EB00206A4684B22846214600F0C0
:1054700043FA012808D05FEA08600ED5B9F1000FA1
:1054800005D04FF0000906E00098BDE8F8833046EB
:1054900012F06CF80646002EB9D124F4FE407E28A6
:1054A00007D0BE2808D08E38B0F5004F01D00020BC
:1054B000EBE715F0A9FEE8E70048E6E7A82D029023
:1054C0002DE9F0411F4614460D46064612F007F935
:1054D0003A46214600F0D2FA0023224629463046B9
:1054E00019F01AFE24F4FE4229463046BDE8F04188
:1054F00012F082BE2DE9F0411F4614460D460646C5
:1055000012F0EDF83A46214600F0C3FA0023224695
:105510002946304619F000FE24F4FE422946304662
:10552000BDE8F04112F068BE0148406870470000D5
:1055300028000020704730B504020020831803FBC8
:1055400003F5A54200D818465208F7D10207000912
:105550000880120E4A8030BD2DE9F04105008846D2
:1055600016464FF0FF3706D0286820B1284607F0CE
:1055700028FB040002D53846BDE8F0812968A01C4C
:10558000022201443046FFF7FBFC2146284607F083
:1055900025FC00EA182000F07F00EDE72DE9F0413E
:1055A0000500884616464FF0FF3706D0286820B120
:1055B000284607F006FB040002D53846BDE8F08116
:1055C0002968A01C022201443046FFF7D9FC21467D
:1055D000284607F003FC00EA182000F07F00EDE702
:1055E00070B50546006800280DD0002403E000BF18
:1055F00007F0D9FA04442846214607F0F4FBFF28B7
:10560000F6D1A41CA0B270BD2DE9F041050088467A
:1056100016464FF0FF3706D0286820B1284607F01D
:10562000D0FA040002D53846BDE8F0812968A01CF4
:10563000012201443046FFF7A3FC2146284607F02B
:10564000CDFB00EA182000F07F00EDE72DE9F041E6
:105650000500884616464FF0FF3706D0286820B16F
:10566000284607F0AEFA040002D53846BDE8F081BE
:105670002968A01C042201443046FFF781FC214622
:10568000284607F0ABFB00EA182000F07F00EDE7AA
:1056900070B505000E463AD000F06EF968688106D4
:1056A00016D08006010E2868091D10F0F5FF04468B
:1056B0000BF0D6FD80B1002C29D0696800200A06C5
:1056C00000D501204A0600D5401C01F03F0111E041
:1056D000042010F05FFFEAE7002322460CA00BF045
:1056E000C3FDFEE704EB81034A1E53F8043C44F873
:1056F0002130D1B28142F5D844F820602C604FF0BF
:105700008060696800EBB1104FEAB060686070BDFE
:105710004F7574206F66206D656D6F7279000000A3
:1057200070B505460079000604D52846BDE87040EE
:1057300000F019B9042010F02DFF04460BF090FD85
:10574000A8B1D4B1204614F008FC21462846FFF742
:105750009FFF686840F080006860410605D52868B2
:10576000D0E90012026028684160204670BD002325
:10577000224603A00BF078FDFEE7002070BD00007C
:105780004F7574206F66206D656D6F727900000033
:105790002DE9F84306001746894633D030680028C3
:1057A0002ED00021ADF800104C1E0D464FEA1928EE
:1057B0001EE03046E9B214F049FC6A464946FFF75C
:1057C000CBFE404504D100BFBDF80000388016E094
:1057D00071680A0604D5002802DB0DB9C905F3D5A6
:1057E000A04203DDBDF80010044639806D1C2DB2C7
:1057F000307900F03F00A842DBDC002C02DB012006
:10580000BDE8F8830020FBE72DE9F84306001746C2
:10581000894633D0306800282ED00021ADF8001022
:105820004C1E0D464FEA19281EE03046E9B214F02E
:105830000DFC6A464946FFF7B1FE404504D100BF62
:10584000BDF80000388016E071680A0604D500280B
:1058500002DB0DB9C905F3D5A04203DDBDF8001088
:10586000044639806D1C2DB2307900F03F00A8420B
:10587000DBDC002C02DB0120BDE8F8830020FBE725
:105880002DE9F84306001746894633D030680028D2
:105890002ED000218DF800104C1E0D464FEA19281D
:1058A0001EE03046E9B214F0D1FB6A464946FFF7E4
:1058B000ABFE404504D100BF9DF80000387016E0F3
:1058C00071680A0604D5002802DB0DB9C905F3D5B5
:1058D000A04203DD9DF80010044639706D1C2DB206
:1058E000307900F03F00A842DBDC002C02DB012015
:1058F000BDE8F8830020FBE72DE9F84306001746D2
:1059000089462ED03068002829D000254FF0FF347A
:105910004FEA19281BE03046E9B214F097FB6A46BB
:105920004946FFF793FE404502D10098386015E0E4
:1059300071680A0604D5002802DB0DB9C905F4D543
:10594000A04202DD0099044639606D1C2DB2307909
:1059500000F03F00A842DEDC002C02DB0120BDE8A5
:10596000F8830020FBE70179090601D40020704785
:10597000006800687047000070B5044640680E4635
:1059800081061DD000F03F01002017E0226852F888
:105990002020B24210D101294FF0000511D088001B
:1059A000001F10F0F7FD05460BF05AFC80B1002DEA
:1059B00006D0002001461CE0401CC0B28142E5D860
:1059C00070BD206810F03AFE606820F07F001FE094
:1059D00000232A4610A00BF047FCFEE7226852F88D
:1059E0002020B24203D04B1C45F82120D9B2401CE4
:1059F000C0B2227902F03F028242EFD8206810F054
:105A00001DFE60684FF07C4101EBB0104FEAB060C2
:105A1000C4E9005070BD00004F7574206F66206DA2
:105A2000656D6F727900000070B5040025D0207993
:105A3000400609D5204614F0FDFA050004D014F004
:105A400047FB284610F0FAFD2079000609D52046CC
:105A5000FFF789FF050004D014F03AFB284610F048
:105A6000EDFD2079800602D0206810F0E7FD606827
:105A700000216FF30800C4E9001070BD70B5144632
:105A80000D4606F03FFE22462946BDE8704000F074
:105A90000BB870B514460D4606F034FE2246294672
:105AA000BDE8704000F0A8B837B582B00446BDF834
:105AB0000C1007F086F8050011D40146204607F0C7
:105AC0008DF9BDF80C2000F07F01C2F30620814261
:105AD00005D12068AD1C0222284404A926E0FF203D
